BL51 BANKED LINKER/LOCATER V6.22.2.0                                                    10/23/2021  18:30:43  PAGE 1


BL51 BANKED LINKER/LOCATER V6.22.2.0, INVOKED BY:
C:\KEIL_V5\C51\BIN\BL51.EXE .\output\STARTUP.obj, .\output\main.obj, .\output\ecbm_core.obj, .\output\gpio.obj, .\output
>> \power.obj, .\output\uart.obj, .\output\exti.obj, .\output\timer.obj, .\output\eeprom.obj, .\output\spi.obj, .\output
>> \soft_spi.obj, .\output\iic.obj, .\output\soft_iic.obj, .\output\adc.obj, .\output\cmp.obj, .\output\mdu16.obj, .\out
>> put\it.obj, .\output\pca.obj, .\output\modbus.obj TO .\output\ecbm PRINT (.\output\ecbm.m51) RAMSIZE (256) DISABLEWAR
>> NING (16)


MEMORY MODEL: LARGE WITH FLOATING POINT ARITHMETIC


INPUT MODULES INCLUDED:
  .\output\STARTUP.obj (?C_STARTUP)
  .\output\main.obj (MAIN)
  .\output\ecbm_core.obj (ECBM_CORE)
  .\output\gpio.obj (GPIO)
  .\output\power.obj (POWER)
  .\output\uart.obj (UART)
  .\output\exti.obj (EXTI)
  .\output\timer.obj (TIMER)
  .\output\eeprom.obj (EEPROM)
  .\output\spi.obj (SPI)
  .\output\soft_spi.obj (SOFT_SPI)
  .\output\iic.obj (IIC)
  .\output\soft_iic.obj (SOFT_IIC)
  .\output\adc.obj (ADC)
  .\output\cmp.obj (CMP)
  .\output\mdu16.obj (MDU16)
  .\output\it.obj (IT)
  .\output\pca.obj (PCA)
  .\output\modbus.obj (MODBUS)
  C:\KEIL_V5\C51\LIB\C51FPL.LIB (?C?FPMUL)
  C:\KEIL_V5\C51\LIB\C51FPL.LIB (?C?FPDIV)
  C:\KEIL_V5\C51\LIB\C51FPL.LIB (?C?FCAST)
  C:\KEIL_V5\C51\LIB\C51FPL.LIB (?C?CASTF)
  C:\KEIL_V5\C51\LIB\C51FPL.LIB (VSPRINTF)
  C:\KEIL_V5\C51\LIB\C51FPL.LIB (?C?FPGETOPN)
  C:\KEIL_V5\C51\LIB\C51FPL.LIB (PRINTF)
  C:\KEIL_V5\C51\LIB\C51FPL.LIB (?C?FPROUND)
  C:\KEIL_V5\C51\LIB\C51FPL.LIB (?C?FPCONVERT)
  C:\KEIL_V5\C51\LIB\C51FPL.LIB (?C?FPADD)
  C:\KEIL_V5\C51\LIB\C51FPL.LIB (?C?FTNPWR)
  C:\KEIL_V5\C51\LIB\C51L.LIB (?C_INIT)
  C:\KEIL_V5\C51\LIB\C51L.LIB (?C?CLDPTR)
  C:\KEIL_V5\C51\LIB\C51L.LIB (?C?CLDOPTR)
  C:\KEIL_V5\C51\LIB\C51L.LIB (?C?CSTPTR)
  C:\KEIL_V5\C51\LIB\C51L.LIB (?C?CSTOPTR)
  C:\KEIL_V5\C51\LIB\C51L.LIB (?C?IMUL)
  C:\KEIL_V5\C51\LIB\C51L.LIB (?C?IILDX)
  C:\KEIL_V5\C51\LIB\C51L.LIB (?C?ILDIX)
  C:\KEIL_V5\C51\LIB\C51L.LIB (?C?ISTPTR)
  C:\KEIL_V5\C51\LIB\C51L.LIB (?C?LMUL)
  C:\KEIL_V5\C51\LIB\C51L.LIB (?C?ULDIV)
  C:\KEIL_V5\C51\LIB\C51L.LIB (?C?LNEG)
  C:\KEIL_V5\C51\LIB\C51L.LIB (?C?ULCMP)
  C:\KEIL_V5\C51\LIB\C51L.LIB (?C?LSTXDATA)
  C:\KEIL_V5\C51\LIB\C51L.LIB (?C?LSTKXDATA)
  C:\KEIL_V5\C51\LIB\C51L.LIB (?C?PLDIXDATA)
BL51 BANKED LINKER/LOCATER V6.22.2.0                                                  10/23/2021  18:30:43  PAGE 2


  C:\KEIL_V5\C51\LIB\C51L.LIB (?C?PSTXDATA)
  C:\KEIL_V5\C51\LIB\C51L.LIB (?C?CCASE)
  C:\KEIL_V5\C51\LIB\C51L.LIB (?C?LIMUL)
  C:\KEIL_V5\C51\LIB\C51L.LIB (PUTCHAR)


LINK MAP OF MODULE:  .\output\ecbm (?C_STARTUP)


            TYPE    BASE      LENGTH    RELOCATION   SEGMENT NAME
            -----------------------------------------------------

            * * * * * * *   D A T A   M E M O R Y   * * * * * * *
            REG     0000H     0008H     ABSOLUTE     "REG BANK 0"
            DATA    0008H     0005H     UNIT         _DATA_GROUP_
            DATA    000DH     0002H     UNIT         ?DT?GPIO
            DATA    000FH     0001H     UNIT         ?DT?_GPIO_IN?GPIO
                    0010H     0010H                  *** GAP ***
            BIT     0020H.0   0001H.1   UNIT         _BIT_GROUP_
            BIT     0021H.1   0000H.1   UNIT         ?BI?UART
                    0021H.2   0000H.6                *** GAP ***
            IDATA   0022H     0012H     UNIT         ?ID?MODBUS
            IDATA   0034H     0001H     UNIT         ?STACK

            * * * * * * *  X D A T A   M E M O R Y  * * * * * * *
            XDATA   0000H     00C4H     UNIT         ?XD?_DEBUG?ECBM_CORE
            XDATA   00C4H     00AFH     UNIT         _XDATA_GROUP_
            XDATA   0173H     004FH     UNIT         ?XD?_UART_PRINTF?UART
            XDATA   01C2H     003CH     UNIT         ?XD?MODBUS
            XDATA   01FEH     0012H     UNIT         ?XD?_STR_PUSH_LEN?ECBM_CORE
            XDATA   0210H     000CH     UNIT         ?XD?ECBM_CORE
            XDATA   021CH     000AH     UNIT         ?XD?_STR_FIND?ECBM_CORE
            XDATA   0226H     0009H     UNIT         ?XD?_TIMER_SET_TIMER_MODE?TIMER
            XDATA   022FH     0005H     UNIT         ?XD?_STR_READ_U16?ECBM_CORE
            XDATA   0234H     0003H     UNIT         ?XD?_STR_READ_PIN?ECBM_CORE
            XDATA   0237H     0003H     UNIT         ?XD?_UART_STRING?UART
            XDATA   023AH     0003H     UNIT         ?XD?_TIMER_GET_VALUE?TIMER
            XDATA   023DH     0002H     UNIT         ?XD?_GPIO_UPPULL?GPIO
            XDATA   023FH     0002H     UNIT         ?XD?_GPIO_OUT?GPIO
            XDATA   0241H     0001H     UNIT         ?XD?_GPIO_IN?GPIO
            XDATA   0242H     0001H     UNIT         ?XD?_GPIO_TOGGLE?GPIO
            XDATA   0243H     0001H     UNIT         ?XD?_TIMER_OUT?TIMER
            XDATA   0244H     0001H     UNIT         ?XD?_TIMER_SET_VALUE?TIMER

            * * * * * * *   C O D E   M E M O R Y   * * * * * * *
            CODE    0000H     0003H     ABSOLUTE     
            CODE    0003H     0008H     UNIT         ?CO?UART
            CODE    000BH     0003H     ABSOLUTE     
            CODE    000EH     0015H     UNIT         ?PR?_ECBM_MODBUS_RTU_CHECK_FUN_NUM?MODBUS
            CODE    0023H     0003H     ABSOLUTE     
            CODE    0026H     07D2H     UNIT         ?C?LIB_CODE
            CODE    07F8H     0483H     UNIT         ?PR?PRINTF?PRINTF
            CODE    0C7BH     0314H     UNIT         ?PR?_GPIO_MODE?GPIO
            CODE    0F8FH     025EH     UNIT         ?PR?SYSTEM_INIT?ECBM_CORE
            CODE    11EDH     020CH     UNIT         ?PR?ECBM_MODBUS_RTU_RECEIVE?MODBUS
            CODE    13F9H     01F1H     UNIT         ?PR?ECBM_MODBUS_RTU_CMD_0X01?MODBUS
            CODE    15EAH     01D4H     UNIT         ?PR?_TIMER_SET_TIMER_MODE?TIMER
BL51 BANKED LINKER/LOCATER V6.22.2.0                                                  10/23/2021  18:30:43  PAGE 3


            CODE    17BEH     01A9H     UNIT         ?PR?ECBM_MODBUS_RTU_CMD_0X02?MODBUS
            CODE    1967H     01A2H     UNIT         ?CO?GPIO
            CODE    1B09H     0189H     UNIT         ?PR?ECBM_MODBUS_RTU_CMD_0X03?MODBUS
            CODE    1C92H     017CH     UNIT         ?PR?ECBM_MODBUS_RTU_CMD_0X10?MODBUS
            CODE    1E0EH     012DH     UNIT         ?PR?_STR_PUSH_LEN?ECBM_CORE
            CODE    1F3BH     0112H     UNIT         ?PR?_GPIO_UPPULL?GPIO
            CODE    204DH     010FH     UNIT         ?PR?_GPIO_OUT?GPIO
            CODE    215CH     0106H     UNIT         ?PR?_ECBM_MODBUS_CMD_READ_IO_BIT?MAIN
            CODE    2262H     0100H     UNIT         ?CO?TIMER
            CODE    2362H     00F1H     UNIT         ?PR?ECBM_MODBUS_RTU_CMD_0X05?MODBUS
            CODE    2453H     00EDH     UNIT         ?PR?ECBM_MODBUS_RTU_RUN?MODBUS
            CODE    2540H     00E8H     UNIT         ?PR?_STR_READ_PIN?ECBM_CORE
            CODE    2628H     00CFH     UNIT         ?PR?_STR_READ_U16?ECBM_CORE
            CODE    26F7H     00C5H     UNIT         ?PR?_ERROR_PRINTF?ECBM_CORE
            CODE    27BCH     00B8H     UNIT         ?PR?_SYSTEM_SET_CLOCK?ECBM_CORE
            CODE    2874H     00B6H     UNIT         ?PR?ECBM_MODBUS_RTU_CMD_0X06?MODBUS
            CODE    292AH     00AAH     UNIT         ?PR?_GPIO_IN?GPIO
            CODE    29D4H     00A4H     UNIT         ?PR?_STR_FIND?ECBM_CORE
            CODE    2A78H     009DH     UNIT         ?PR?_GPIO_TOGGLE?GPIO
            CODE    2B15H     009AH     UNIT         ?PR?_GPIO_OUT_FAST?GPIO
            CODE    2BAFH     008CH     UNIT         ?C_C51STARTUP
            CODE    2C3BH     0066H     UNIT         ?PR?_UART_PRINTF?UART
            CODE    2CA1H     0060H     UNIT         ?PR?_DEBUG?ECBM_CORE
            CODE    2D01H     005AH     UNIT         ?PR?_GPIO_WRITE?GPIO
            CODE    2D5BH     0057H     UNIT         ?PR?_GPIO_READ?GPIO
            CODE    2DB2H     0055H     UNIT         ?PR?_GPIO_IN_FAST?GPIO
            CODE    2E07H     0051H     UNIT         ?PR?_ECBM_MODBUS_RTU_CRC16?MODBUS
            CODE    2E58H     004EH     UNIT         ?PR?_UART_SET_IO?UART
            CODE    2EA6H     004AH     UNIT         ?PR?UART1_IT?UART
            CODE    2EF0H     004AH     UNIT         ?PR?_VSPRINTF?VSPRINTF
            CODE    2F3AH     0045H     UNIT         ?PR?_GPIO_TOGGLE_FAST?GPIO
            CODE    2F7FH     0041H     UNIT         ?PR?_UART_SET_BAUD?UART
            CODE    2FC0H     0041H     UNIT         ?PR?_TIMER_OUT?TIMER
            CODE    3001H     003DH     UNIT         ?PR?_TIMER_GET_VALUE?TIMER
            CODE    303EH     003AH     UNIT         ?PR?TIM0_FUN?MAIN
            CODE    3078H     0037H     UNIT         ?PR?_UART_STRING?UART
            CODE    30AFH     0032H     UNIT         ?C_INITSEG
            CODE    30E1H     0030H     UNIT         ?PR?UART_INIT?UART
            CODE    3111H     002CH     UNIT         ?PR?SYSTEM_UART_RESET?ECBM_CORE
            CODE    313DH     002CH     UNIT         ?PR?_TIMER_SET_VALUE?TIMER
            CODE    3169H     0027H     UNIT         ?PR?PUTCHAR?PUTCHAR
            CODE    3190H     0026H     UNIT         ?PR?_DELAY_SET_US?ECBM_CORE
            CODE    31B6H     001FH     UNIT         ?PR?_DELAY_MS?ECBM_CORE
            CODE    31D5H     001BH     UNIT         ?PR?_UART_CHAR_9?UART
            CODE    31F0H     001BH     UNIT         ?PR?_ECBM_MODBUS_CMD_READ_REG?MODBUS
            CODE    320BH     001AH     UNIT         ?PR?_TIMER_START?TIMER
            CODE    3225H     0018H     UNIT         ?PR?_TIMER_STOP?TIMER
            CODE    323DH     0017H     UNIT         ?PR?_ECBM_MODBUS_CMD_WRITE_REG?MODBUS
            CODE    3254H     0014H     UNIT         ?PR?TIMER_INIT?TIMER
            CODE    3268H     0013H     UNIT         ?PR?_DELAY_US?ECBM_CORE
            CODE    327BH     0012H     UNIT         ?PR?_ECBM_MODBUS_CMD_READ_BIT?MAIN
            CODE    328DH     0010H     UNIT         ?PR?MAIN?MAIN
            CODE    329DH     000EH     UNIT         ?PR?_UART_CHAR?UART
            CODE    32ABH     000CH     UNIT         ?PR?_ECBM_MODBUS_CMD_WRITE_BIT?MAIN
            CODE    32B7H     000CH     UNIT         ?PR?_SYSTEM_SET_DIV?ECBM_CORE
            CODE    32C3H     0007H     UNIT         ?PR?_ECBM_MODBUS_RTU_SET_DATA?MAIN
            CODE    32CAH     0003H     UNIT         ?PR?UART1_RECEIVE_CALLBACK?MAIN
BL51 BANKED LINKER/LOCATER V6.22.2.0                                                  10/23/2021  18:30:43  PAGE 4


            CODE    32CDH     0003H     UNIT         ?PR?ECBM_MODBUS_RTU_GET_DATA?MAIN



OVERLAY MAP OF MODULE:   .\output\ecbm (?C_STARTUP)


SEGMENT                                             BIT_GROUP          DATA_GROUP          XDATA_GROUP
  +--> CALLED SEGMENT                            START    LENGTH     START    LENGTH     START    LENGTH
--------------------------------------------------------------------------------------------------------
?C_C51STARTUP                                    -----    -----      -----    -----      -----    -----
  +--> ?PR?MAIN?MAIN
  +--> ?C_INITSEG

?PR?MAIN?MAIN                                    -----    -----      -----    -----      -----    -----
  +--> ?PR?SYSTEM_INIT?ECBM_CORE
  +--> ?PR?TIMER_INIT?TIMER
  +--> ?PR?_TIMER_START?TIMER
  +--> ?PR?ECBM_MODBUS_RTU_RUN?MODBUS

?PR?SYSTEM_INIT?ECBM_CORE                        -----    -----      -----    -----      00C4H    0004H
  +--> ?PR?UART_INIT?UART

?PR?UART_INIT?UART                               -----    -----      -----    -----      -----    -----
  +--> ?PR?_UART_SET_IO?UART
  +--> ?PR?_UART_SET_BAUD?UART

?PR?_UART_SET_IO?UART                            -----    -----      -----    -----      00C8H    0001H
  +--> ?CO?UART
  +--> ?PR?_GPIO_MODE?GPIO

?PR?_GPIO_MODE?GPIO                              -----    -----      -----    -----      00C9H    0002H
  +--> ?CO?GPIO
  +--> ?PR?_ERROR_PRINTF?ECBM_CORE

?PR?_ERROR_PRINTF?ECBM_CORE                      -----    -----      -----    -----      00CBH    0072H
  +--> ?PR?_DELAY_SET_US?ECBM_CORE
  +--> ?PR?_VSPRINTF?VSPRINTF
  +--> ?PR?_DELAY_MS?ECBM_CORE
  +--> ?PR?_DELAY_US?ECBM_CORE

?PR?_VSPRINTF?VSPRINTF                           -----    -----      -----    -----      013DH    0006H
  +--> ?PR?PRINTF?PRINTF

?PR?PRINTF?PRINTF                                0020H.0  0001H.1    0008H    0005H      0143H    0030H
  +--> ?PR?PUTCHAR?PUTCHAR

?PR?_UART_SET_BAUD?UART                          -----    -----      -----    -----      00C8H    0005H

?PR?_TIMER_START?TIMER                           -----    -----      -----    -----      -----    -----
  +--> ?CO?TIMER
  +--> ?PR?_ERROR_PRINTF?ECBM_CORE

?PR?ECBM_MODBUS_RTU_RUN?MODBUS                   -----    -----      -----    -----      -----    -----
  +--> ?PR?_ECBM_MODBUS_RTU_CRC16?MODBUS
  +--> ?PR?_ECBM_MODBUS_RTU_SET_DATA?MAIN
  +--> ?PR?ECBM_MODBUS_RTU_CMD_0X01?MODBUS
BL51 BANKED LINKER/LOCATER V6.22.2.0                                                  10/23/2021  18:30:43  PAGE 5


  +--> ?PR?ECBM_MODBUS_RTU_CMD_0X02?MODBUS
  +--> ?PR?ECBM_MODBUS_RTU_CMD_0X03?MODBUS
  +--> ?PR?ECBM_MODBUS_RTU_CMD_0X05?MODBUS
  +--> ?PR?ECBM_MODBUS_RTU_CMD_0X06?MODBUS
  +--> ?PR?ECBM_MODBUS_RTU_CMD_0X10?MODBUS

?PR?_ECBM_MODBUS_RTU_SET_DATA?MAIN               -----    -----      -----    -----      -----    -----
  +--> ?PR?_UART_CHAR?UART

?PR?ECBM_MODBUS_RTU_CMD_0X01?MODBUS              -----    -----      -----    -----      00C4H    0008H
  +--> ?PR?_ECBM_MODBUS_RTU_CRC16?MODBUS
  +--> ?PR?_ECBM_MODBUS_RTU_SET_DATA?MAIN
  +--> ?PR?_ECBM_MODBUS_CMD_READ_BIT?MAIN

?PR?_ECBM_MODBUS_CMD_READ_BIT?MAIN               -----    -----      -----    -----      00CCH    0005H

?PR?ECBM_MODBUS_RTU_CMD_0X02?MODBUS              -----    -----      -----    -----      00C4H    0008H
  +--> ?PR?_ECBM_MODBUS_RTU_CRC16?MODBUS
  +--> ?PR?_ECBM_MODBUS_RTU_SET_DATA?MAIN
  +--> ?PR?_ECBM_MODBUS_CMD_READ_IO_BIT?MAIN

?PR?ECBM_MODBUS_RTU_CMD_0X03?MODBUS              -----    -----      -----    -----      00C4H    0004H
  +--> ?PR?_ECBM_MODBUS_RTU_CRC16?MODBUS
  +--> ?PR?_ECBM_MODBUS_RTU_SET_DATA?MAIN
  +--> ?PR?_ECBM_MODBUS_CMD_READ_REG?MODBUS

?PR?ECBM_MODBUS_RTU_CMD_0X05?MODBUS              -----    -----      -----    -----      -----    -----
  +--> ?PR?_ECBM_MODBUS_RTU_CRC16?MODBUS
  +--> ?PR?_ECBM_MODBUS_RTU_SET_DATA?MAIN
  +--> ?PR?_ECBM_MODBUS_CMD_WRITE_BIT?MAIN

?PR?_ECBM_MODBUS_CMD_WRITE_BIT?MAIN              -----    -----      -----    -----      00C4H    0003H

?PR?ECBM_MODBUS_RTU_CMD_0X06?MODBUS              -----    -----      -----    -----      -----    -----
  +--> ?PR?_ECBM_MODBUS_RTU_CRC16?MODBUS
  +--> ?PR?_ECBM_MODBUS_RTU_SET_DATA?MAIN
  +--> ?PR?_ECBM_MODBUS_CMD_WRITE_REG?MODBUS

?PR?ECBM_MODBUS_RTU_CMD_0X10?MODBUS              -----    -----      -----    -----      -----    -----
  +--> ?PR?_ECBM_MODBUS_RTU_CRC16?MODBUS
  +--> ?PR?_ECBM_MODBUS_RTU_SET_DATA?MAIN
  +--> ?PR?_ECBM_MODBUS_CMD_WRITE_REG?MODBUS

*** NEW ROOT ***************************************************

?PR?UART1_IT?UART                                -----    -----      -----    -----      -----    -----
  +--> ?PR?UART1_RECEIVE_CALLBACK?MAIN
  +--> ?PR?SYSTEM_UART_RESET?ECBM_CORE

?PR?UART1_RECEIVE_CALLBACK?MAIN                  -----    -----      -----    -----      -----    -----
  +--> ?PR?ECBM_MODBUS_RTU_RECEIVE?MODBUS

?PR?ECBM_MODBUS_RTU_RECEIVE?MODBUS               -----    -----      -----    -----      -----    -----
  +--> ?PR?ECBM_MODBUS_RTU_GET_DATA?MAIN
  +--> ?PR?_ECBM_MODBUS_RTU_CHECK_FUN_NUM?MO...
  +--> ?PR?_ECBM_MODBUS_RTU_CRC16?MODBUS

BL51 BANKED LINKER/LOCATER V6.22.2.0                                                  10/23/2021  18:30:43  PAGE 6




SYMBOL TABLE OF MODULE:  .\output\ecbm (?C_STARTUP)

  VALUE           TYPE          NAME
  ----------------------------------

  -------         MODULE        ?C_STARTUP
  C:2BAFH         SEGMENT       ?C_C51STARTUP
  I:0034H         SEGMENT       ?STACK
  C:0000H         PUBLIC        ?C_STARTUP
  D:00E0H         SYMBOL        ACC
  D:00F0H         SYMBOL        B
  D:0083H         SYMBOL        DPH
  D:0082H         SYMBOL        DPL
  N:0000H         SYMBOL        IBPSTACK
  N:0100H         SYMBOL        IBPSTACKTOP
  N:0080H         SYMBOL        IDATALEN
  C:2BB2H         SYMBOL        IDATALOOP
  N:0000H         SYMBOL        PBPSTACK
  N:0100H         SYMBOL        PBPSTACKTOP
  N:0000H         SYMBOL        PDATALEN
  N:0000H         SYMBOL        PDATASTART
  N:0000H         SYMBOL        PPAGE
  N:0000H         SYMBOL        PPAGEENABLE
  D:00A0H         SYMBOL        PPAGE_SFR
  D:0081H         SYMBOL        SP
  C:2BAFH         SYMBOL        STARTUP1
  N:0000H         SYMBOL        XBPSTACK
  N:0000H         SYMBOL        XBPSTACKTOP
  N:0000H         SYMBOL        XDATALEN
  N:0000H         SYMBOL        XDATASTART
  C:0000H         LINE#         126
  C:2BAFH         LINE#         133
  C:2BB1H         LINE#         134
  C:2BB2H         LINE#         135
  C:2BB3H         LINE#         136
  C:2BB5H         LINE#         185
  C:2BB8H         LINE#         196
  -------         ENDMOD        ?C_STARTUP

  -------         MODULE        MAIN
  C:0000H         SYMBOL        _ICE_DUMMY_
  D:0080H         PUBLIC        P0
  D:0090H         PUBLIC        P1
  D:00A0H         PUBLIC        P2
  D:00B0H         PUBLIC        P3
  D:00C0H         PUBLIC        P4
  D:00C8H         PUBLIC        P5
  D:00E8H         PUBLIC        P6
  D:00F8H         PUBLIC        P7
  D:00A8H         PUBLIC        IE
  D:00B8H         PUBLIC        IP
  D:00D8H         PUBLIC        CCON
  C:328DH         PUBLIC        main
  C:303EH         PUBLIC        tim0_fun
  B:0080H.0       PUBLIC        P00
BL51 BANKED LINKER/LOCATER V6.22.2.0                                                  10/23/2021  18:30:43  PAGE 7


  D:0099H         PUBLIC        SBUF
  B:0090H.0       PUBLIC        P10
  B:0080H.1       PUBLIC        P01
  B:00A0H.0       PUBLIC        P20
  B:0090H.1       PUBLIC        P11
  B:0080H.2       PUBLIC        P02
  B:00B0H.0       PUBLIC        P30
  B:00A0H.1       PUBLIC        P21
  B:0090H.2       PUBLIC        P12
  B:0080H.3       PUBLIC        P03
  D:0098H         PUBLIC        SCON
  B:00B0H.1       PUBLIC        P31
  B:00A0H.2       PUBLIC        P22
  B:0090H.3       PUBLIC        P13
  B:0080H.4       PUBLIC        P04
  D:0088H         PUBLIC        TCON
  B:00B0H.2       PUBLIC        P32
  B:00A0H.3       PUBLIC        P23
  B:0090H.4       PUBLIC        P14
  B:0080H.5       PUBLIC        P05
  B:00B0H.3       PUBLIC        P33
  B:00A0H.4       PUBLIC        P24
  B:0090H.5       PUBLIC        P15
  B:0080H.6       PUBLIC        P06
  B:00B0H.4       PUBLIC        P34
  B:00A0H.5       PUBLIC        P25
  B:0090H.6       PUBLIC        P16
  B:0080H.7       PUBLIC        P07
  B:00B0H.5       PUBLIC        P35
  B:00A0H.6       PUBLIC        P26
  B:0090H.7       PUBLIC        P17
  B:00B0H.6       PUBLIC        P36
  B:00A0H.7       PUBLIC        P27
  B:00B0H.7       PUBLIC        P37
  C:327BH         PUBLIC        _ecbm_modbus_cmd_read_bit
  C:32CAH         PUBLIC        uart1_receive_callback
  C:32ABH         PUBLIC        _ecbm_modbus_cmd_write_bit
  C:32CDH         PUBLIC        ecbm_modbus_rtu_get_data
  C:32C3H         PUBLIC        _ecbm_modbus_rtu_set_data
  C:215CH         PUBLIC        _ecbm_modbus_cmd_read_io_bit
  D:00D0H         PUBLIC        PSW
  -------         PROC          UART1_RECEIVE_CALLBACK
  C:32CAH         LINE#         4
  C:32CAH         LINE#         5
  -------         ENDPROC       UART1_RECEIVE_CALLBACK
  -------         PROC          _ECBM_MODBUS_RTU_SET_DATA
  D:0007H         SYMBOL        dat
  C:32C3H         LINE#         7
  C:32C3H         LINE#         8
  -------         ENDPROC       _ECBM_MODBUS_RTU_SET_DATA
  -------         PROC          ECBM_MODBUS_RTU_GET_DATA
  C:32CDH         LINE#         10
  C:32CDH         LINE#         11
  C:32CFH         LINE#         12
  -------         ENDPROC       ECBM_MODBUS_RTU_GET_DATA
  -------         PROC          TIM0_FUN
  C:303EH         LINE#         13
BL51 BANKED LINKER/LOCATER V6.22.2.0                                                  10/23/2021  18:30:43  PAGE 8


  C:3047H         LINE#         14
  C:3071H         LINE#         15
  -------         ENDPROC       TIM0_FUN
  -------         PROC          MAIN
  C:328DH         LINE#         17
  C:328DH         LINE#         18
  C:3290H         LINE#         19
  C:3293H         LINE#         20
  C:3298H         LINE#         21
  C:3298H         LINE#         22
  C:329BH         LINE#         23
  -------         ENDPROC       MAIN
  -------         PROC          _ECBM_MODBUS_CMD_WRITE_BIT
  X:00C4H         SYMBOL        addr
  X:00C6H         SYMBOL        dat
  C:32ABH         LINE#         27
  C:32B6H         LINE#         29
  -------         ENDPROC       _ECBM_MODBUS_CMD_WRITE_BIT
  -------         PROC          _ECBM_MODBUS_CMD_READ_BIT
  X:00CCH         SYMBOL        addr
  X:00CEH         SYMBOL        dat
  C:327BH         LINE#         30
  C:328CH         LINE#         32
  -------         ENDPROC       _ECBM_MODBUS_CMD_READ_BIT
  -------         PROC          _ECBM_MODBUS_CMD_READ_IO_BIT
  D:0006H         SYMBOL        addr
  D:0001H         SYMBOL        dat
  C:215CH         LINE#         43
  C:215CH         LINE#         44
  C:21D2H         LINE#         45
  C:21D6H         LINE#         46
  C:21DAH         LINE#         47
  C:21DEH         LINE#         48
  C:21E2H         LINE#         49
  C:21E6H         LINE#         50
  C:21EAH         LINE#         51
  C:21EEH         LINE#         52
  C:21F2H         LINE#         53
  C:21F6H         LINE#         54
  C:21FAH         LINE#         55
  C:21FEH         LINE#         56
  C:2202H         LINE#         57
  C:2206H         LINE#         58
  C:220AH         LINE#         59
  C:220EH         LINE#         60
  C:2212H         LINE#         61
  C:2216H         LINE#         62
  C:221AH         LINE#         63
  C:221EH         LINE#         64
  C:2222H         LINE#         65
  C:2226H         LINE#         66
  C:222AH         LINE#         67
  C:222EH         LINE#         68
  C:2232H         LINE#         69
  C:2236H         LINE#         70
  C:223AH         LINE#         71
  C:223EH         LINE#         72
BL51 BANKED LINKER/LOCATER V6.22.2.0                                                  10/23/2021  18:30:43  PAGE 9


  C:2242H         LINE#         73
  C:2246H         LINE#         74
  C:224AH         LINE#         75
  C:224EH         LINE#         76
  C:2257H         LINE#         77
  C:225FH         LINE#         78
  C:225FH         LINE#         79
  C:2261H         LINE#         80
  -------         ENDPROC       _ECBM_MODBUS_CMD_READ_IO_BIT
  -------         ENDMOD        MAIN

  -------         MODULE        ECBM_CORE
  C:0000H         SYMBOL        _ICE_DUMMY_
  D:0080H         PUBLIC        P0
  D:0090H         PUBLIC        P1
  D:00A0H         PUBLIC        P2
  C:2540H         PUBLIC        _str_read_pin
  D:00B0H         PUBLIC        P3
  D:00C0H         PUBLIC        P4
  D:00C8H         PUBLIC        P5
  D:00E8H         PUBLIC        P6
  B:00A8H.7       PUBLIC        EA
  D:00F8H         PUBLIC        P7
  C:2CA1H         PUBLIC        _debug
  C:3190H         PUBLIC        _delay_set_us
  X:0210H         PUBLIC        ecbm_delay_base
  D:00BAH         PUBLIC        P_SW2
  D:00A8H         PUBLIC        IE
  C:2628H         PUBLIC        _str_read_u16
  D:00B8H         PUBLIC        IP
  C:1E0EH         PUBLIC        _str_push_len
  D:00D8H         PUBLIC        CCON
  C:26F7H         PUBLIC        _error_printf
  X:0212H         PUBLIC        char_count
  D:0099H         PUBLIC        SBUF
  D:0098H         PUBLIC        SCON
  B:00B0H.1       PUBLIC        P31
  D:0088H         PUBLIC        TCON
  C:0F8FH         PUBLIC        system_init
  X:0213H         PUBLIC        old_char
  D:00C7H         PUBLIC        IAP_CONTR
  C:27BCH         PUBLIC        _system_set_clock
  X:0214H         PUBLIC        fast_cout
  C:3111H         PUBLIC        system_uart_reset
  C:31B6H         PUBLIC        _delay_ms
  D:009FH         PUBLIC        IRTRIM
  C:3270H         PUBLIC        _delay_us
  C:29D4H         PUBLIC        _str_find
  X:0218H         PUBLIC        ecbm_sys_clk
  D:00D0H         PUBLIC        PSW
  C:32B7H         PUBLIC        _system_set_div
  -------         PROC          _DELAY_MS
  D:0006H         SYMBOL        ms
  -------         DO            
  D:0004H         SYMBOL        i
  -------         ENDDO         
  C:31B6H         LINE#         24
BL51 BANKED LINKER/LOCATER V6.22.2.0                                                  10/23/2021  18:30:43  PAGE 10


  C:31B6H         LINE#         26
  C:31BAH         LINE#         27
  C:31BAH         LINE#         28
  C:31C2H         LINE#         29
  C:31CBH         LINE#         30
  C:31D4H         LINE#         31
  C:31D4H         LINE#         32
  -------         ENDPROC       _DELAY_MS
  C:3268H         SYMBOL        L?0201
  -------         PROC          L?0200
  -------         ENDPROC       L?0200
  C:3268H         SYMBOL        L?0201
  -------         PROC          _DELAY_US
  D:0006H         SYMBOL        us
  -------         DO            
  D:0006H         SYMBOL        i
  -------         ENDDO         
  C:3270H         LINE#         36
  C:3270H         LINE#         38
  C:3270H         LINE#         39
  C:327AH         LINE#         40
  -------         ENDPROC       _DELAY_US
  -------         PROC          _DELAY_SET_US
  D:0006H         SYMBOL        us
  C:3190H         LINE#         44
  C:3190H         LINE#         46
  C:31AAH         LINE#         47
  C:31B5H         LINE#         48
  -------         ENDPROC       _DELAY_SET_US
  -------         PROC          SYSTEM_UART_RESET
  C:3111H         LINE#         58
  C:3111H         LINE#         59
  C:3119H         LINE#         60
  C:311CH         LINE#         61
  C:3121H         LINE#         62
  C:3123H         LINE#         63
  C:3129H         LINE#         64
  C:3129H         LINE#         65
  C:3136H         LINE#         66
  C:3137H         LINE#         67
  C:313AH         LINE#         68
  C:313BH         LINE#         69
  C:313CH         LINE#         70
  C:313CH         LINE#         71
  -------         ENDPROC       SYSTEM_UART_RESET
  -------         PROC          _DEBUG
  X:0000H         SYMBOL        str
  -------         DO            
  X:0003H         SYMBOL        ellipsis_40
  X:002BH         SYMBOL        buf
  X:00C1H         SYMBOL        vp
  -------         ENDDO         
  C:2CA1H         LINE#         149
  C:2CACH         LINE#         152
  C:2CBAH         LINE#         153
  C:2CEDH         LINE#         154
  C:2CF6H         LINE#         155
BL51 BANKED LINKER/LOCATER V6.22.2.0                                                  10/23/2021  18:30:43  PAGE 11


  -------         ENDPROC       _DEBUG
  -------         PROC          _SYSTEM_SET_CLOCK
  D:0007H         SYMBOL        source
  C:27BCH         LINE#         164
  C:27BCH         LINE#         165
  C:27D6H         LINE#         166
  C:27D6H         LINE#         167
  C:27D6H         LINE#         168
  C:27E3H         LINE#         169
  C:27EAH         LINE#         170
  C:27EDH         LINE#         171
  C:27EDH         LINE#         172
  C:27EDH         LINE#         173
  C:27EFH         LINE#         174
  C:27EFH         LINE#         175
  C:27FCH         LINE#         176
  C:2805H         LINE#         177
  C:280AH         LINE#         178
  C:280EH         LINE#         179
  C:2812H         LINE#         180
  C:2813H         LINE#         181
  C:2813H         LINE#         182
  C:2820H         LINE#         183
  C:2829H         LINE#         184
  C:282EH         LINE#         185
  C:2832H         LINE#         186
  C:2834H         LINE#         187
  C:2835H         LINE#         188
  C:2835H         LINE#         189
  C:2842H         LINE#         190
  C:284BH         LINE#         191
  C:284EH         LINE#         192
  C:284EH         LINE#         193
  C:284EH         LINE#         194
  C:2850H         LINE#         195
  C:2850H         LINE#         196
  C:285DH         LINE#         197
  C:2866H         LINE#         198
  C:286BH         LINE#         199
  C:286FH         LINE#         200
  C:2873H         LINE#         201
  C:2873H         LINE#         202
  C:2873H         LINE#         203
  -------         ENDPROC       _SYSTEM_SET_CLOCK
  -------         PROC          _SYSTEM_SET_DIV
  D:0007H         SYMBOL        div
  C:32B7H         LINE#         204
  C:32B7H         LINE#         205
  C:32BDH         LINE#         206
  C:32BFH         LINE#         207
  C:32C0H         LINE#         208
  C:32C2H         LINE#         209
  C:32C2H         LINE#         210
  -------         ENDPROC       _SYSTEM_SET_DIV
  -------         PROC          SYSTEM_INIT
  -------         DO            
  X:00C4H         SYMBOL        sys_count
BL51 BANKED LINKER/LOCATER V6.22.2.0                                                  10/23/2021  18:30:43  PAGE 12


  -------         ENDDO         
  C:0F8FH         LINE#         214
  C:0F8FH         LINE#         221
  C:0F92H         LINE#         231
  C:0FD3H         LINE#         233
  C:0FF7H         LINE#         234
  C:1013H         LINE#         235
  C:101DH         LINE#         236
  C:103CH         LINE#         237
  C:1046H         LINE#         238
  C:1065H         LINE#         239
  C:106FH         LINE#         240
  C:108EH         LINE#         241
  C:1098H         LINE#         242
  C:10B7H         LINE#         243
  C:10C1H         LINE#         244
  C:10E0H         LINE#         245
  C:10EAH         LINE#         246
  C:1109H         LINE#         247
  C:1113H         LINE#         248
  C:1132H         LINE#         249
  C:113CH         LINE#         250
  C:115BH         LINE#         251
  C:1165H         LINE#         252
  C:1183H         LINE#         253
  C:118DH         LINE#         254
  C:11AEH         LINE#         255
  C:11B5H         LINE#         256
  C:11B7H         LINE#         257
  C:11BEH         LINE#         258
  C:11BEH         LINE#         268
  C:11DEH         LINE#         271
  C:11E3H         LINE#         272
  C:11E7H         LINE#         273
  C:11EAH         LINE#         300
  C:11ECH         LINE#         305
  -------         ENDPROC       SYSTEM_INIT
  -------         PROC          _ERROR_PRINTF
  X:00CBH         SYMBOL        str
  -------         DO            
  X:00CEH         SYMBOL        ellipsis_40
  D:0001H         SYMBOL        ch
  D:0005H         SYMBOL        i
  D:0002H         SYMBOL        j
  X:00F6H         SYMBOL        len
  X:00F8H         SYMBOL        buf
  X:0138H         SYMBOL        vp
  X:013BH         SYMBOL        _100us
  -------         ENDDO         
  C:26F7H         LINE#         310
  C:2702H         LINE#         316
  C:2711H         LINE#         317
  C:271FH         LINE#         318
  C:275AH         LINE#         319
  C:2763H         LINE#         320
  C:2763H         LINE#         321
  C:276AH         LINE#         322
BL51 BANKED LINKER/LOCATER V6.22.2.0                                                  10/23/2021  18:30:43  PAGE 13


  C:277AH         LINE#         323
  C:277CH         LINE#         324
  C:277EH         LINE#         325
  C:2781H         LINE#         326
  C:278DH         LINE#         327
  C:2799H         LINE#         328
  C:279DH         LINE#         329
  C:279FH         LINE#         330
  C:27A1H         LINE#         331
  C:27A3H         LINE#         332
  C:27A3H         LINE#         333
  C:27A7H         LINE#         334
  C:27AAH         LINE#         335
  C:27ADH         LINE#         336
  C:27AFH         LINE#         337
  C:27B2H         LINE#         338
  C:27B5H         LINE#         339
  -------         ENDPROC       _ERROR_PRINTF
  -------         PROC          _STR_FIND
  X:021CH         SYMBOL        dest
  X:021FH         SYMBOL        key
  -------         DO            
  D:0006H         SYMBOL        key_count
  X:0222H         SYMBOL        key_first
  X:0224H         SYMBOL        count
  -------         ENDDO         
  C:29D4H         LINE#         384
  C:29DFH         LINE#         385
  C:29ECH         LINE#         386
  C:29FCH         LINE#         387
  C:2A0AH         LINE#         388
  C:2A2EH         LINE#         389
  C:2A33H         LINE#         390
  C:2A35H         LINE#         391
  C:2A38H         LINE#         392
  C:2A47H         LINE#         393
  C:2A47H         LINE#         394
  C:2A51H         LINE#         395
  C:2A6AH         LINE#         396
  C:2A73H         LINE#         397
  C:2A73H         LINE#         398
  C:2A73H         LINE#         399
  C:2A77H         LINE#         431
  -------         ENDPROC       _STR_FIND
  -------         PROC          _STR_READ_PIN
  D:0001H         SYMBOL        str
  D:0004H         SYMBOL        pos
  -------         DO            
  X:0234H         SYMBOL        dat
  X:0235H         SYMBOL        offset
  X:0236H         SYMBOL        count
  -------         ENDDO         
  C:2540H         LINE#         435
  C:2540H         LINE#         436
  C:2545H         LINE#         437
  C:2549H         LINE#         438
  C:255DH         LINE#         439
BL51 BANKED LINKER/LOCATER V6.22.2.0                                                  10/23/2021  18:30:43  PAGE 14


  C:2585H         LINE#         440
  C:258BH         LINE#         441
  C:2590H         LINE#         442
  C:25A9H         LINE#         443
  C:25A9H         LINE#         444
  C:25B1H         LINE#         445
  C:25CBH         LINE#         446
  C:25CCH         LINE#         447
  C:25CCH         LINE#         448
  C:25CCH         LINE#         449
  C:25F7H         LINE#         450
  C:25FDH         LINE#         451
  C:25FDH         LINE#         452
  C:2612H         LINE#         453
  C:2619H         LINE#         454
  C:2622H         LINE#         455
  C:2627H         LINE#         456
  -------         ENDPROC       _STR_READ_PIN
  -------         PROC          _STR_READ_U16
  D:0001H         SYMBOL        str
  X:022FH         SYMBOL        pos
  -------         DO            
  X:0231H         SYMBOL        dat
  X:0233H         SYMBOL        offset
  -------         ENDDO         
  C:2628H         LINE#         460
  C:2630H         LINE#         461
  C:2635H         LINE#         463
  C:2648H         LINE#         464
  C:2676H         LINE#         465
  C:268DH         LINE#         466
  C:26BCH         LINE#         467
  C:26BCH         LINE#         468
  C:26D9H         LINE#         469
  C:26DEH         LINE#         470
  C:26E5H         LINE#         471
  C:26EEH         LINE#         472
  C:26F6H         LINE#         473
  -------         ENDPROC       _STR_READ_U16
  -------         PROC          _STR_PUSH_LEN
  X:01FEH         SYMBOL        dest
  X:0201H         SYMBOL        dlen
  X:0203H         SYMBOL        key
  X:0206H         SYMBOL        klen
  -------         DO            
  X:0208H         SYMBOL        i
  X:020AH         SYMBOL        j
  X:020CH         SYMBOL        start
  X:020EH         SYMBOL        stop
  -------         ENDDO         
  C:1E0EH         LINE#         477
  C:1E1FH         LINE#         478
  C:1E2EH         LINE#         479
  C:1E4DH         LINE#         480
  C:1E7CH         LINE#         481
  C:1E8AH         LINE#         482
  C:1E9EH         LINE#         483
BL51 BANKED LINKER/LOCATER V6.22.2.0                                                  10/23/2021  18:30:43  PAGE 15


  C:1EADH         LINE#         484
  C:1EAFH         LINE#         485
  C:1EAFH         LINE#         486
  C:1EAFH         LINE#         487
  C:1EB6H         LINE#         488
  C:1ECAH         LINE#         489
  C:1ECAH         LINE#         490
  C:1EDEH         LINE#         491
  C:1EF4H         LINE#         492
  C:1F12H         LINE#         493
  C:1F25H         LINE#         494
  C:1F35H         LINE#         495
  C:1F38H         LINE#         496
  C:1F38H         LINE#         497
  C:1F3AH         LINE#         498
  C:1F3AH         LINE#         499
  -------         ENDPROC       _STR_PUSH_LEN
  -------         ENDMOD        ECBM_CORE

  -------         MODULE        GPIO
  C:0000H         SYMBOL        _ICE_DUMMY_
  D:0092H         PUBLIC        P1M0
  D:0093H         PUBLIC        P0M1
  D:0096H         PUBLIC        P2M0
  D:0091H         PUBLIC        P1M1
  D:0080H         PUBLIC        P0
  D:00B2H         PUBLIC        P3M0
  D:0095H         PUBLIC        P2M1
  D:0090H         PUBLIC        P1
  D:00B4H         PUBLIC        P4M0
  D:00B1H         PUBLIC        P3M1
  D:00A0H         PUBLIC        P2
  D:00CAH         PUBLIC        P5M0
  D:00B3H         PUBLIC        P4M1
  D:00B0H         PUBLIC        P3
  D:00CCH         PUBLIC        P6M0
  D:00C9H         PUBLIC        P5M1
  D:00C0H         PUBLIC        P4
  D:00E2H         PUBLIC        P7M0
  D:00CBH         PUBLIC        P6M1
  D:00C8H         PUBLIC        P5
  D:00E1H         PUBLIC        P7M1
  D:00E8H         PUBLIC        P6
  D:00F8H         PUBLIC        P7
  D:00A8H         PUBLIC        IE
  C:2A78H         PUBLIC        _gpio_toggle
  D:00B8H         PUBLIC        IP
  D:00D8H         PUBLIC        CCON
  C:2F3AH         PUBLIC        _gpio_toggle_fast
  C:2D5BH         PUBLIC        _gpio_read
  D:0098H         PUBLIC        SCON
  D:0088H         PUBLIC        TCON
  C:1F3BH         PUBLIC        _gpio_uppull
  C:0C7BH         PUBLIC        _gpio_mode
  C:2D01H         PUBLIC        _gpio_write
  D:000DH         PUBLIC        ecbm_port
  D:000EH         PUBLIC        ecbm_pin
BL51 BANKED LINKER/LOCATER V6.22.2.0                                                  10/23/2021  18:30:43  PAGE 16


  C:1B01H         PUBLIC        ecbm_pin_mask
  C:292AH         PUBLIC        _gpio_in
  C:204DH         PUBLIC        _gpio_out
  C:2DB2H         PUBLIC        _gpio_in_fast
  D:00D0H         PUBLIC        PSW
  C:2B15H         PUBLIC        _gpio_out_fast
  D:0094H         PUBLIC        P0M0
  -------         PROC          _GPIO_UPPULL
  X:023DH         SYMBOL        pin
  X:023EH         SYMBOL        en
  -------         DO            
  C:1F3DH         SYMBOL        gpio_uppull_end
  -------         ENDDO         
  C:1F3BH         LINE#         10
  C:1F45H         LINE#         12
  C:1F4CH         LINE#         13
  C:1F52H         LINE#         14
  C:1F5CH         LINE#         15
  C:1F66H         LINE#         17
  C:1F89H         LINE#         21
  C:1F89H         LINE#         23
  C:1F8FH         LINE#         24
  C:1FB1H         LINE#         26
  C:1FB6H         LINE#         29
  C:1FBBH         LINE#         32
  C:1FC0H         LINE#         35
  C:1FC5H         LINE#         38
  C:1FCAH         LINE#         41
  C:1FCFH         LINE#         44
  C:1FD4H         LINE#         47
  C:1FDCH         LINE#         50
  C:1FE4H         LINE#         54
  C:1FE4H         LINE#         55
  C:1FE4H         LINE#         56
  C:2006H         LINE#         58
  C:200BH         LINE#         61
  C:2010H         LINE#         64
  C:2015H         LINE#         67
  C:201AH         LINE#         70
  C:201FH         LINE#         73
  C:2024H         LINE#         76
  C:2029H         LINE#         79
  C:2036H         LINE#         82
  C:204CH         LINE#         86
  C:204CH         LINE#         87
  C:204CH         LINE#         88
  C:204CH         LINE#         89
  -------         ENDPROC       _GPIO_UPPULL
  -------         PROC          _GPIO_MODE
  X:00C9H         SYMBOL        pin
  X:00CAH         SYMBOL        mode
  -------         DO            
  C:0C97H         SYMBOL        gpio_mode_end
  -------         ENDDO         
  C:0C7BH         LINE#         95
  C:0C85H         LINE#         97
  C:0C8CH         LINE#         98
BL51 BANKED LINKER/LOCATER V6.22.2.0                                                  10/23/2021  18:30:43  PAGE 17


  C:0C92H         LINE#         99
  C:0C9CH         LINE#         100
  C:0CA6H         LINE#         102
  C:0CC9H         LINE#         106
  C:0CC9H         LINE#         107
  C:0CEBH         LINE#         109
  C:0CF0H         LINE#         112
  C:0CF5H         LINE#         115
  C:0CFAH         LINE#         118
  C:0CFFH         LINE#         121
  C:0D04H         LINE#         124
  C:0D09H         LINE#         127
  C:0D0EH         LINE#         130
  C:0D13H         LINE#         133
  C:0D36H         LINE#         137
  C:0D36H         LINE#         139
  C:0D44H         LINE#         141
  C:0D60H         LINE#         145
  C:0D60H         LINE#         147
  C:0D64H         LINE#         148
  C:0D74H         LINE#         149
  C:0D83H         LINE#         150
  C:0D93H         LINE#         151
  C:0DA4H         LINE#         152
  C:0DA4H         LINE#         155
  C:0DAAH         LINE#         156
  C:0DBAH         LINE#         157
  C:0DC9H         LINE#         158
  C:0DD9H         LINE#         159
  C:0DEAH         LINE#         160
  C:0DEAH         LINE#         163
  C:0DF0H         LINE#         164
  C:0E00H         LINE#         165
  C:0E0FH         LINE#         166
  C:0E1FH         LINE#         167
  C:0E30H         LINE#         168
  C:0E30H         LINE#         171
  C:0E36H         LINE#         172
  C:0E46H         LINE#         173
  C:0E55H         LINE#         174
  C:0E65H         LINE#         175
  C:0E76H         LINE#         176
  C:0E76H         LINE#         179
  C:0E7CH         LINE#         180
  C:0E8CH         LINE#         181
  C:0E9BH         LINE#         182
  C:0EABH         LINE#         183
  C:0EBCH         LINE#         184
  C:0EBCH         LINE#         187
  C:0EC2H         LINE#         188
  C:0ED2H         LINE#         189
  C:0EE1H         LINE#         190
  C:0EF1H         LINE#         191
  C:0F02H         LINE#         192
  C:0F02H         LINE#         195
  C:0F08H         LINE#         196
  C:0F18H         LINE#         197
BL51 BANKED LINKER/LOCATER V6.22.2.0                                                  10/23/2021  18:30:43  PAGE 18


  C:0F27H         LINE#         198
  C:0F37H         LINE#         199
  C:0F48H         LINE#         200
  C:0F48H         LINE#         203
  C:0F4EH         LINE#         204
  C:0F5EH         LINE#         205
  C:0F6DH         LINE#         206
  C:0F7DH         LINE#         207
  C:0F8EH         LINE#         208
  C:0F8EH         LINE#         210
  C:0F8EH         LINE#         211
  -------         ENDPROC       _GPIO_MODE
  -------         PROC          _GPIO_WRITE
  D:0007H         SYMBOL        port
  D:0005H         SYMBOL        dat
  C:2D01H         LINE#         435
  C:2D01H         LINE#         436
  C:2D29H         LINE#         438
  C:2D2CH         LINE#         441
  C:2D2FH         LINE#         444
  C:2D32H         LINE#         447
  C:2D35H         LINE#         450
  C:2D38H         LINE#         453
  C:2D3BH         LINE#         456
  C:2D3EH         LINE#         459
  C:2D41H         LINE#         461
  C:2D41H         LINE#         463
  C:2D5AH         LINE#         467
  C:2D5AH         LINE#         468
  -------         ENDPROC       _GPIO_WRITE
  -------         PROC          _GPIO_READ
  D:0007H         SYMBOL        port
  C:2D5BH         LINE#         474
  C:2D5BH         LINE#         475
  C:2D83H         LINE#         477
  C:2D86H         LINE#         480
  C:2D89H         LINE#         483
  C:2D8CH         LINE#         486
  C:2D8FH         LINE#         489
  C:2D92H         LINE#         492
  C:2D95H         LINE#         495
  C:2D98H         LINE#         498
  C:2D9BH         LINE#         500
  C:2D9EH         LINE#         502
  C:2DAFH         LINE#         506
  C:2DAFH         LINE#         507
  C:2DB1H         LINE#         508
  -------         ENDPROC       _GPIO_READ
  -------         PROC          _GPIO_OUT
  X:023FH         SYMBOL        pin
  X:0240H         SYMBOL        value
  -------         DO            
  C:20B8H         SYMBOL        gpio_out_end
  -------         ENDDO         
  C:204DH         LINE#         514
  C:2057H         LINE#         516
  C:205EH         LINE#         517
BL51 BANKED LINKER/LOCATER V6.22.2.0                                                  10/23/2021  18:30:43  PAGE 19


  C:2064H         LINE#         518
  C:206EH         LINE#         519
  C:2078H         LINE#         521
  C:209BH         LINE#         525
  C:209BH         LINE#         527
  C:20A1H         LINE#         528
  C:20C3H         LINE#         530
  C:20C8H         LINE#         533
  C:20CDH         LINE#         536
  C:20D2H         LINE#         539
  C:20D7H         LINE#         542
  C:20DCH         LINE#         545
  C:20E1H         LINE#         548
  C:20E6H         LINE#         551
  C:20EBH         LINE#         554
  C:20F3H         LINE#         558
  C:20F3H         LINE#         559
  C:20F3H         LINE#         560
  C:2115H         LINE#         562
  C:211BH         LINE#         565
  C:2121H         LINE#         568
  C:2127H         LINE#         571
  C:212DH         LINE#         574
  C:2133H         LINE#         577
  C:2139H         LINE#         580
  C:213FH         LINE#         583
  C:2145H         LINE#         586
  C:215BH         LINE#         590
  C:215BH         LINE#         591
  C:215BH         LINE#         592
  C:215BH         LINE#         593
  -------         ENDPROC       _GPIO_OUT
  -------         PROC          _GPIO_IN
  X:0241H         SYMBOL        pin
  -------         DO            
  D:000FH         SYMBOL        value
  -------         ENDDO         
  C:292AH         LINE#         599
  C:292FH         LINE#         602
  C:2935H         LINE#         603
  C:293EH         LINE#         604
  C:2948H         LINE#         605
  C:2952H         LINE#         607
  C:2968H         LINE#         611
  C:2968H         LINE#         613
  C:298AH         LINE#         615
  C:298FH         LINE#         618
  C:2994H         LINE#         621
  C:2999H         LINE#         624
  C:299EH         LINE#         627
  C:29A3H         LINE#         630
  C:29A8H         LINE#         633
  C:29ADH         LINE#         636
  C:29B2H         LINE#         639
  C:29C8H         LINE#         643
  C:29C8H         LINE#         644
  C:29D1H         LINE#         645
BL51 BANKED LINKER/LOCATER V6.22.2.0                                                  10/23/2021  18:30:43  PAGE 20


  C:29D3H         LINE#         646
  -------         ENDPROC       _GPIO_IN
  -------         PROC          _GPIO_TOGGLE
  X:0242H         SYMBOL        pin
  -------         DO            
  C:2B0CH         SYMBOL        gpio_toggle_end
  -------         ENDDO         
  C:2A78H         LINE#         652
  C:2A7DH         LINE#         654
  C:2A84H         LINE#         655
  C:2A8AH         LINE#         656
  C:2A94H         LINE#         657
  C:2A9EH         LINE#         659
  C:2AB4H         LINE#         663
  C:2AB4H         LINE#         665
  C:2AD6H         LINE#         667
  C:2ADBH         LINE#         670
  C:2AE0H         LINE#         673
  C:2AE5H         LINE#         676
  C:2AEAH         LINE#         679
  C:2AEFH         LINE#         682
  C:2AF4H         LINE#         685
  C:2AF9H         LINE#         688
  C:2AFEH         LINE#         691
  C:2B14H         LINE#         695
  C:2B14H         LINE#         696
  C:2B14H         LINE#         697
  -------         ENDPROC       _GPIO_TOGGLE
  -------         PROC          _GPIO_TOGGLE_FAST
  D:0007H         SYMBOL        port
  D:0005H         SYMBOL        pin
  C:2F3AH         LINE#         705
  C:2F3AH         LINE#         706
  C:2F5FH         LINE#         708
  C:2F63H         LINE#         711
  C:2F67H         LINE#         714
  C:2F6BH         LINE#         717
  C:2F6FH         LINE#         720
  C:2F73H         LINE#         723
  C:2F77H         LINE#         726
  C:2F7BH         LINE#         729
  C:2F7EH         LINE#         731
  C:2F7EH         LINE#         732
  C:2F7EH         LINE#         733
  -------         ENDPROC       _GPIO_TOGGLE_FAST
  -------         PROC          _GPIO_OUT_FAST
  D:0001H         SYMBOL        port
  D:0005H         SYMBOL        pin
  D:0003H         SYMBOL        val
  C:2B15H         LINE#         739
  C:2B17H         LINE#         740
  C:2B1AH         LINE#         741
  C:2B42H         LINE#         743
  C:2B46H         LINE#         746
  C:2B4AH         LINE#         749
  C:2B4EH         LINE#         752
  C:2B52H         LINE#         755
BL51 BANKED LINKER/LOCATER V6.22.2.0                                                  10/23/2021  18:30:43  PAGE 21


  C:2B56H         LINE#         758
  C:2B5AH         LINE#         761
  C:2B5EH         LINE#         764
  C:2B62H         LINE#         766
  C:2B62H         LINE#         767
  C:2B62H         LINE#         768
  C:2B62H         LINE#         769
  C:2B87H         LINE#         771
  C:2B8CH         LINE#         774
  C:2B91H         LINE#         777
  C:2B96H         LINE#         780
  C:2B9BH         LINE#         783
  C:2BA0H         LINE#         786
  C:2BA5H         LINE#         789
  C:2BAAH         LINE#         792
  C:2BAEH         LINE#         794
  C:2BAEH         LINE#         795
  C:2BAEH         LINE#         796
  C:2BAEH         LINE#         797
  -------         ENDPROC       _GPIO_OUT_FAST
  -------         PROC          _GPIO_IN_FAST
  D:0007H         SYMBOL        port
  D:0005H         SYMBOL        pin
  -------         DO            
  D:0006H         SYMBOL        val
  -------         ENDDO         
  C:2DB2H         LINE#         803
  C:2DB2H         LINE#         805
  C:2DDAH         LINE#         807
  C:2DDEH         LINE#         810
  C:2DE2H         LINE#         813
  C:2DE6H         LINE#         816
  C:2DEAH         LINE#         819
  C:2DEEH         LINE#         822
  C:2DF2H         LINE#         825
  C:2DF6H         LINE#         828
  C:2DFAH         LINE#         830
  C:2DFDH         LINE#         831
  C:2DFDH         LINE#         832
  C:2E04H         LINE#         833
  C:2E06H         LINE#         834
  -------         ENDPROC       _GPIO_IN_FAST
  -------         ENDMOD        GPIO

  -------         MODULE        POWER
  C:0000H         SYMBOL        _ICE_DUMMY_
  D:0080H         PUBLIC        P0
  D:0090H         PUBLIC        P1
  D:00A0H         PUBLIC        P2
  D:00B0H         PUBLIC        P3
  D:00C0H         PUBLIC        P4
  D:00C8H         PUBLIC        P5
  D:00E8H         PUBLIC        P6
  D:00F8H         PUBLIC        P7
  D:00A8H         PUBLIC        IE
  D:00B8H         PUBLIC        IP
  D:00D8H         PUBLIC        CCON
BL51 BANKED LINKER/LOCATER V6.22.2.0                                                  10/23/2021  18:30:43  PAGE 22


  D:0098H         PUBLIC        SCON
  D:0088H         PUBLIC        TCON
  D:00D0H         PUBLIC        PSW
  -------         ENDMOD        POWER

  -------         MODULE        UART
  C:0000H         SYMBOL        _ICE_DUMMY_
  D:0080H         PUBLIC        P0
  D:0090H         PUBLIC        P1
  D:00A0H         PUBLIC        P2
  D:00B0H         PUBLIC        P3
  D:00C0H         PUBLIC        P4
  D:00C8H         PUBLIC        P5
  D:00E8H         PUBLIC        P6
  D:00F8H         PUBLIC        P7
  D:00A2H         PUBLIC        P_SW1
  D:00A8H         PUBLIC        IE
  B:0021H.1       PUBLIC        uart1_busy
  B:00A8H.4       PUBLIC        ES
  D:00B8H         PUBLIC        IP
  B:0098H.0       PUBLIC        RI
  B:0098H.1       PUBLIC        TI
  D:00D8H         PUBLIC        CCON
  C:2E58H         PUBLIC        _uart_set_io
  C:2EA6H         PUBLIC        uart1_it
  D:0099H         PUBLIC        SBUF
  D:0087H         PUBLIC        PCON
  D:0098H         PUBLIC        SCON
  D:0089H         PUBLIC        TMOD
  D:0088H         PUBLIC        TCON
  C:2C3BH         PUBLIC        _uart_printf
  C:3078H         PUBLIC        _uart_string
  C:329DH         PUBLIC        _uart_char
  D:008EH         PUBLIC        AUXR
  C:0003H         PUBLIC        uart1_io_map
  B:00A8H.3       PUBLIC        ET1
  B:0088H.7       PUBLIC        TF1
  D:008DH         PUBLIC        TH1
  B:0098H.3       PUBLIC        TB8
  D:008BH         PUBLIC        TL1
  C:30E1H         PUBLIC        uart_init
  B:0088H.6       PUBLIC        TR1
  C:31D5H         PUBLIC        _uart_char_9
  C:2F7FH         PUBLIC        _uart_set_baud
  D:00D0H         PUBLIC        PSW
  -------         PROC          UART_INIT
  C:30E1H         LINE#         156
  C:30E1H         LINE#         158
  C:30E4H         LINE#         159
  C:30E7H         LINE#         160
  C:30EAH         LINE#         161
  C:30F1H         LINE#         162
  C:3100H         LINE#         168
  C:3103H         LINE#         169
  C:3106H         LINE#         170
  C:3108H         LINE#         171
  C:310CH         LINE#         177
BL51 BANKED LINKER/LOCATER V6.22.2.0                                                  10/23/2021  18:30:43  PAGE 23


  C:310EH         LINE#         178
  C:3110H         LINE#         225
  -------         ENDPROC       UART_INIT
  -------         PROC          _UART_SET_IO
  D:0007H         SYMBOL        id
  X:00C8H         SYMBOL        io
  C:2E58H         LINE#         229
  C:2E5DH         LINE#         230
  C:2E61H         LINE#         232
  C:2E61H         LINE#         233
  C:2E70H         LINE#         234
  C:2E89H         LINE#         235
  C:2EA5H         LINE#         236
  C:2EA5H         LINE#         259
  C:2EA5H         LINE#         260
  -------         ENDPROC       _UART_SET_IO
  -------         PROC          _UART_SET_BAUD
  X:00C8H         SYMBOL        id
  X:00C9H         SYMBOL        baud
  -------         DO            
  D:0006H         SYMBOL        res
  -------         ENDDO         
  C:2F7FH         LINE#         264
  C:2F84H         LINE#         266
  C:2FB3H         LINE#         267
  C:2FBAH         LINE#         269
  C:2FBAH         LINE#         271
  C:2FBFH         LINE#         275
  C:2FBFH         LINE#         300
  C:2FBFH         LINE#         301
  -------         ENDPROC       _UART_SET_BAUD
  -------         PROC          _UART_CHAR
  D:0007H         SYMBOL        id
  D:0005H         SYMBOL        ch
  C:329DH         LINE#         305
  C:329DH         LINE#         306
  C:32A1H         LINE#         308
  C:32A1H         LINE#         326
  C:32A5H         LINE#         327
  C:32A7H         LINE#         328
  C:32AAH         LINE#         329
  C:32AAH         LINE#         403
  C:32AAH         LINE#         404
  -------         ENDPROC       _UART_CHAR
  -------         PROC          _UART_CHAR_9
  D:0007H         SYMBOL        id
  D:0005H         SYMBOL        ch
  D:0003H         SYMBOL        bit9
  C:31D5H         LINE#         408
  C:31D5H         LINE#         409
  C:31D9H         LINE#         411
  C:31D9H         LINE#         412
  C:31DCH         LINE#         413
  C:31E0H         LINE#         414
  C:31E2H         LINE#         415
  C:31E6H         LINE#         416
  C:31E6H         LINE#         417
BL51 BANKED LINKER/LOCATER V6.22.2.0                                                  10/23/2021  18:30:43  PAGE 24


  C:31EAH         LINE#         418
  C:31ECH         LINE#         419
  C:31EFH         LINE#         420
  C:31EFH         LINE#         458
  C:31EFH         LINE#         459
  -------         ENDPROC       _UART_CHAR_9
  -------         PROC          _UART_STRING
  D:0006H         SYMBOL        id
  X:0237H         SYMBOL        str
  C:3078H         LINE#         463
  C:3085H         LINE#         464
  C:3095H         LINE#         465
  C:30ACH         LINE#         466
  C:30AEH         LINE#         467
  -------         ENDPROC       _UART_STRING
  -------         PROC          _UART_PRINTF
  X:0173H         SYMBOL        id
  X:0174H         SYMBOL        str
  -------         DO            
  X:0177H         SYMBOL        ellipsis_40
  X:019FH         SYMBOL        buf
  X:01BFH         SYMBOL        vp
  -------         ENDDO         
  C:2C3BH         LINE#         472
  C:2C49H         LINE#         475
  C:2C57H         LINE#         477
  C:2C8AH         LINE#         478
  C:2C93H         LINE#         479
  -------         ENDPROC       _UART_PRINTF
  -------         PROC          UART1_IT
  C:2EA6H         LINE#         486
  C:2EC3H         LINE#         487
  C:2EC6H         LINE#         488
  C:2EC8H         LINE#         490
  C:2ECBH         LINE#         493
  C:2ECEH         LINE#         495
  C:2ECEH         LINE#         496
  C:2ED1H         LINE#         497
  C:2ED3H         LINE#         498
  C:2ED5H         LINE#         502
  C:2ED5H         LINE#         503
  -------         ENDPROC       UART1_IT
  -------         ENDMOD        UART

  -------         MODULE        EXTI
  C:0000H         SYMBOL        _ICE_DUMMY_
  D:0080H         PUBLIC        P0
  D:0090H         PUBLIC        P1
  D:00A0H         PUBLIC        P2
  D:00B0H         PUBLIC        P3
  D:00C0H         PUBLIC        P4
  D:00C8H         PUBLIC        P5
  D:00E8H         PUBLIC        P6
  D:00F8H         PUBLIC        P7
  D:00A8H         PUBLIC        IE
  D:00B8H         PUBLIC        IP
  D:00D8H         PUBLIC        CCON
BL51 BANKED LINKER/LOCATER V6.22.2.0                                                  10/23/2021  18:30:43  PAGE 25


  D:0098H         PUBLIC        SCON
  D:0088H         PUBLIC        TCON
  D:00D0H         PUBLIC        PSW
  -------         ENDMOD        EXTI

  -------         MODULE        TIMER
  C:0000H         SYMBOL        _ICE_DUMMY_
  D:0080H         PUBLIC        P0
  D:0090H         PUBLIC        P1
  D:00A0H         PUBLIC        P2
  D:00B0H         PUBLIC        P3
  D:00C0H         PUBLIC        P4
  D:00C8H         PUBLIC        P5
  D:00E8H         PUBLIC        P6
  D:00F8H         PUBLIC        P7
  D:00A8H         PUBLIC        IE
  D:008FH         PUBLIC        INTCLKO
  D:00B8H         PUBLIC        IP
  D:00D8H         PUBLIC        CCON
  D:0098H         PUBLIC        SCON
  D:0089H         PUBLIC        TMOD
  D:0088H         PUBLIC        TCON
  C:320BH         PUBLIC        _timer_start
  C:3254H         PUBLIC        timer_init
  D:008EH         PUBLIC        AUXR
  C:3001H         PUBLIC        _timer_get_value
  B:00A8H.1       PUBLIC        ET0
  B:0088H.5       PUBLIC        TF0
  D:008CH         PUBLIC        TH0
  C:3225H         PUBLIC        _timer_stop
  D:008AH         PUBLIC        TL0
  C:313DH         PUBLIC        _timer_set_value
  B:0088H.4       PUBLIC        TR0
  C:2FC0H         PUBLIC        _timer_out
  C:15EAH         PUBLIC        _timer_set_timer_mode
  D:00D0H         PUBLIC        PSW
  -------         PROC          _TIMER_START
  D:0007H         SYMBOL        id
  C:320BH         LINE#         47
  C:320BH         LINE#         48
  C:320EH         LINE#         50
  C:3213H         LINE#         65
  C:3224H         LINE#         69
  C:3224H         LINE#         70
  -------         ENDPROC       _TIMER_START
  -------         PROC          _TIMER_STOP
  D:0007H         SYMBOL        id
  C:3225H         LINE#         74
  C:3225H         LINE#         75
  C:3228H         LINE#         77
  C:322BH         LINE#         92
  C:323CH         LINE#         96
  C:323CH         LINE#         97
  -------         ENDPROC       _TIMER_STOP
  -------         PROC          _TIMER_OUT
  X:0243H         SYMBOL        id
  D:0005H         SYMBOL        en
BL51 BANKED LINKER/LOCATER V6.22.2.0                                                  10/23/2021  18:30:43  PAGE 26


  C:2FC0H         LINE#         101
  C:2FC5H         LINE#         102
  C:2FC8H         LINE#         103
  C:2FCBH         LINE#         105
  C:2FD2H         LINE#         120
  C:2FDAH         LINE#         124
  C:2FDAH         LINE#         125
  C:2FDAH         LINE#         126
  C:2FE0H         LINE#         128
  C:2FEAH         LINE#         143
  C:3000H         LINE#         147
  C:3000H         LINE#         148
  C:3000H         LINE#         149
  -------         ENDPROC       _TIMER_OUT
  -------         PROC          TIMER_INIT
  C:3254H         LINE#         153
  C:3254H         LINE#         155
  C:325CH         LINE#         156
  C:325FH         LINE#         157
  C:3265H         LINE#         159
  C:3267H         LINE#         195
  -------         ENDPROC       TIMER_INIT
  -------         PROC          _TIMER_SET_TIMER_MODE
  X:0226H         SYMBOL        id
  X:0227H         SYMBOL        us
  -------         DO            
  X:0229H         SYMBOL        n
  X:022BH         SYMBOL        max_1T
  X:022DH         SYMBOL        max_12T
  -------         ENDDO         
  C:15EAH         LINE#         199
  C:15F5H         LINE#         201
  C:1630H         LINE#         202
  C:164CH         LINE#         203
  C:1654H         LINE#         204
  C:1656H         LINE#         205
  C:1691H         LINE#         206
  C:1691H         LINE#         207
  C:16AFH         LINE#         208
  C:16B5H         LINE#         209
  C:16D4H         LINE#         210
  C:16DDH         LINE#         211
  C:16DFH         LINE#         213
  C:16F7H         LINE#         217
  C:16F7H         LINE#         218
  C:1700H         LINE#         220
  C:1700H         LINE#         221
  C:170CH         LINE#         222
  C:170FH         LINE#         223
  C:1721H         LINE#         224
  C:172FH         LINE#         225
  C:1732H         LINE#         226
  C:1788H         LINE#         227
  C:1788H         LINE#         228
  C:1794H         LINE#         229
  C:1797H         LINE#         230
  C:1798H         LINE#         285
BL51 BANKED LINKER/LOCATER V6.22.2.0                                                  10/23/2021  18:30:43  PAGE 27


  C:17BDH         LINE#         289
  C:17BDH         LINE#         290
  -------         ENDPROC       _TIMER_SET_TIMER_MODE
  -------         PROC          _TIMER_SET_VALUE
  X:0244H         SYMBOL        id
  D:0004H         SYMBOL        value
  C:313DH         LINE#         294
  C:3142H         LINE#         295
  C:3144H         LINE#         297
  C:314AH         LINE#         312
  C:3168H         LINE#         316
  C:3168H         LINE#         317
  -------         ENDPROC       _TIMER_SET_VALUE
  -------         PROC          _TIMER_GET_VALUE
  X:023AH         SYMBOL        id
  -------         DO            
  X:023BH         SYMBOL        value
  -------         ENDDO         
  C:3001H         LINE#         321
  C:3006H         LINE#         322
  C:300BH         LINE#         323
  C:300EH         LINE#         325
  C:301FH         LINE#         340
  C:3035H         LINE#         344
  C:3035H         LINE#         345
  C:303DH         LINE#         346
  -------         ENDPROC       _TIMER_GET_VALUE
  -------         ENDMOD        TIMER

  -------         MODULE        EEPROM
  C:0000H         SYMBOL        _ICE_DUMMY_
  D:0080H         PUBLIC        P0
  D:0090H         PUBLIC        P1
  D:00A0H         PUBLIC        P2
  D:00B0H         PUBLIC        P3
  D:00C0H         PUBLIC        P4
  D:00C8H         PUBLIC        P5
  D:00E8H         PUBLIC        P6
  D:00F8H         PUBLIC        P7
  D:00A8H         PUBLIC        IE
  D:00B8H         PUBLIC        IP
  D:00D8H         PUBLIC        CCON
  D:0098H         PUBLIC        SCON
  D:0088H         PUBLIC        TCON
  D:00D0H         PUBLIC        PSW
  -------         ENDMOD        EEPROM

  -------         MODULE        SPI
  C:0000H         SYMBOL        _ICE_DUMMY_
  D:0080H         PUBLIC        P0
  D:0090H         PUBLIC        P1
  D:00A0H         PUBLIC        P2
  D:00B0H         PUBLIC        P3
  D:00C0H         PUBLIC        P4
  D:00C8H         PUBLIC        P5
  D:00E8H         PUBLIC        P6
  D:00F8H         PUBLIC        P7
BL51 BANKED LINKER/LOCATER V6.22.2.0                                                  10/23/2021  18:30:43  PAGE 28


  D:00A8H         PUBLIC        IE
  D:00B8H         PUBLIC        IP
  D:00D8H         PUBLIC        CCON
  D:0098H         PUBLIC        SCON
  D:0088H         PUBLIC        TCON
  D:00D0H         PUBLIC        PSW
  -------         ENDMOD        SPI

  -------         MODULE        SOFT_SPI
  C:0000H         SYMBOL        _ICE_DUMMY_
  D:0080H         PUBLIC        P0
  D:0090H         PUBLIC        P1
  D:00A0H         PUBLIC        P2
  D:00B0H         PUBLIC        P3
  D:00C0H         PUBLIC        P4
  D:00C8H         PUBLIC        P5
  D:00E8H         PUBLIC        P6
  D:00F8H         PUBLIC        P7
  D:00A8H         PUBLIC        IE
  D:00B8H         PUBLIC        IP
  D:00D8H         PUBLIC        CCON
  D:0098H         PUBLIC        SCON
  D:0088H         PUBLIC        TCON
  D:00D0H         PUBLIC        PSW
  -------         ENDMOD        SOFT_SPI

  -------         MODULE        IIC
  C:0000H         SYMBOL        _ICE_DUMMY_
  D:0080H         PUBLIC        P0
  D:0090H         PUBLIC        P1
  D:00A0H         PUBLIC        P2
  D:00B0H         PUBLIC        P3
  D:00C0H         PUBLIC        P4
  D:00C8H         PUBLIC        P5
  D:00E8H         PUBLIC        P6
  D:00F8H         PUBLIC        P7
  D:00A8H         PUBLIC        IE
  D:00B8H         PUBLIC        IP
  D:00D8H         PUBLIC        CCON
  D:0098H         PUBLIC        SCON
  D:0088H         PUBLIC        TCON
  D:00D0H         PUBLIC        PSW
  -------         ENDMOD        IIC

  -------         MODULE        SOFT_IIC
  C:0000H         SYMBOL        _ICE_DUMMY_
  D:0080H         PUBLIC        P0
  D:0090H         PUBLIC        P1
  D:00A0H         PUBLIC        P2
  D:00B0H         PUBLIC        P3
  D:00C0H         PUBLIC        P4
  D:00C8H         PUBLIC        P5
  D:00E8H         PUBLIC        P6
  D:00F8H         PUBLIC        P7
  D:00A8H         PUBLIC        IE
  D:00B8H         PUBLIC        IP
  D:00D8H         PUBLIC        CCON
BL51 BANKED LINKER/LOCATER V6.22.2.0                                                  10/23/2021  18:30:43  PAGE 29


  D:0098H         PUBLIC        SCON
  D:0088H         PUBLIC        TCON
  D:00D0H         PUBLIC        PSW
  -------         ENDMOD        SOFT_IIC

  -------         MODULE        ADC
  C:0000H         SYMBOL        _ICE_DUMMY_
  D:0080H         PUBLIC        P0
  D:0090H         PUBLIC        P1
  D:00A0H         PUBLIC        P2
  D:00B0H         PUBLIC        P3
  D:00C0H         PUBLIC        P4
  D:00C8H         PUBLIC        P5
  D:00E8H         PUBLIC        P6
  D:00F8H         PUBLIC        P7
  D:00A8H         PUBLIC        IE
  D:00B8H         PUBLIC        IP
  D:00D8H         PUBLIC        CCON
  D:0098H         PUBLIC        SCON
  D:0088H         PUBLIC        TCON
  D:00D0H         PUBLIC        PSW
  -------         ENDMOD        ADC

  -------         MODULE        CMP
  C:0000H         SYMBOL        _ICE_DUMMY_
  D:0080H         PUBLIC        P0
  D:0090H         PUBLIC        P1
  D:00A0H         PUBLIC        P2
  D:00B0H         PUBLIC        P3
  D:00C0H         PUBLIC        P4
  D:00C8H         PUBLIC        P5
  D:00E8H         PUBLIC        P6
  D:00F8H         PUBLIC        P7
  D:00A8H         PUBLIC        IE
  D:00B8H         PUBLIC        IP
  D:00D8H         PUBLIC        CCON
  D:0098H         PUBLIC        SCON
  D:0088H         PUBLIC        TCON
  D:00D0H         PUBLIC        PSW
  -------         ENDMOD        CMP

  -------         MODULE        MDU16
  C:0000H         SYMBOL        _ICE_DUMMY_
  D:0080H         PUBLIC        P0
  D:0090H         PUBLIC        P1
  D:00A0H         PUBLIC        P2
  D:00B0H         PUBLIC        P3
  D:00C0H         PUBLIC        P4
  D:00C8H         PUBLIC        P5
  D:00E8H         PUBLIC        P6
  D:00F8H         PUBLIC        P7
  D:00A8H         PUBLIC        IE
  D:00B8H         PUBLIC        IP
  D:00D8H         PUBLIC        CCON
  D:0098H         PUBLIC        SCON
  D:0088H         PUBLIC        TCON
  D:00D0H         PUBLIC        PSW
BL51 BANKED LINKER/LOCATER V6.22.2.0                                                  10/23/2021  18:30:43  PAGE 30


  -------         ENDMOD        MDU16

  -------         MODULE        IT
  C:0000H         SYMBOL        _ICE_DUMMY_
  D:0080H         PUBLIC        P0
  D:0090H         PUBLIC        P1
  D:00A0H         PUBLIC        P2
  D:00B0H         PUBLIC        P3
  D:00C0H         PUBLIC        P4
  D:00C8H         PUBLIC        P5
  D:00E8H         PUBLIC        P6
  D:00F8H         PUBLIC        P7
  D:00A8H         PUBLIC        IE
  D:00B8H         PUBLIC        IP
  D:00D8H         PUBLIC        CCON
  D:0098H         PUBLIC        SCON
  D:0088H         PUBLIC        TCON
  D:00D0H         PUBLIC        PSW
  -------         ENDMOD        IT

  -------         MODULE        PCA
  C:0000H         SYMBOL        _ICE_DUMMY_
  D:0080H         PUBLIC        P0
  D:0090H         PUBLIC        P1
  D:00A0H         PUBLIC        P2
  D:00B0H         PUBLIC        P3
  D:00C0H         PUBLIC        P4
  D:00C8H         PUBLIC        P5
  D:00E8H         PUBLIC        P6
  D:00F8H         PUBLIC        P7
  D:00A8H         PUBLIC        IE
  D:00B8H         PUBLIC        IP
  D:00D8H         PUBLIC        CCON
  D:0098H         PUBLIC        SCON
  D:0088H         PUBLIC        TCON
  D:00D0H         PUBLIC        PSW
  -------         ENDMOD        PCA

  -------         MODULE        MODBUS
  C:0000H         SYMBOL        _ICE_DUMMY_
  I:0022H         PUBLIC        ecbm_modbus_rtu_uart_crc
  I:0024H         PUBLIC        ecbm_modbus_rtu_crc_buf
  C:000EH         PUBLIC        _ecbm_modbus_rtu_check_fun_num
  X:01C2H         PUBLIC        ecbm_modbus_rtu_reg_buf
  C:11EDH         PUBLIC        ecbm_modbus_rtu_receive
  I:0026H         PUBLIC        ecbm_modbus_rtu_address
  I:0028H         PUBLIC        ecbm_modbus_rtu_broadcast_en
  I:0029H         PUBLIC        ecbm_modbus_rtu_timeout
  C:31F0H         PUBLIC        _ecbm_modbus_cmd_read_reg
  C:1C92H         PUBLIC        ecbm_modbus_rtu_cmd_0x10
  C:13F9H         PUBLIC        ecbm_modbus_rtu_cmd_0x01
  C:17BEH         PUBLIC        ecbm_modbus_rtu_cmd_0x02
  C:2E16H         PUBLIC        _ecbm_modbus_rtu_crc16
  C:1B09H         PUBLIC        ecbm_modbus_rtu_cmd_0x03
  C:2362H         PUBLIC        ecbm_modbus_rtu_cmd_0x05
  C:2874H         PUBLIC        ecbm_modbus_rtu_cmd_0x06
  C:323DH         PUBLIC        _ecbm_modbus_cmd_write_reg
BL51 BANKED LINKER/LOCATER V6.22.2.0                                                  10/23/2021  18:30:43  PAGE 31


  I:002BH         PUBLIC        ecbm_modbus_rtu_fun_err_num
  I:002CH         PUBLIC        ecbm_modbus_rtu_status
  I:002DH         PUBLIC        ecbm_modbus_rtu_data_count
  I:002FH         PUBLIC        ecbm_modbus_rtu_crc
  I:0031H         PUBLIC        ecbm_modbus_rtu_cmd_count
  I:0032H         PUBLIC        ecbm_modbus_rtu_fun_code
  I:0033H         PUBLIC        ecbm_modbus_rtu_id
  X:01EAH         PUBLIC        ecbm_modbus_rtu_cmd_buf
  C:2453H         PUBLIC        ecbm_modbus_rtu_run
  C:2E12H         SYMBOL        L?0187
  -------         PROC          L?0186
  -------         ENDPROC       L?0186
  C:2E12H         SYMBOL        L?0187
  -------         PROC          _ECBM_MODBUS_RTU_CRC16
  D:0007H         SYMBOL        buf
  -------         DO            
  D:0005H         SYMBOL        j
  -------         ENDDO         
  C:2E16H         LINE#         29
  C:2E16H         LINE#         31
  C:2E1EH         LINE#         32
  C:2E2AH         LINE#         33
  C:2E34H         LINE#         34
  C:2E45H         LINE#         35
  C:2E47H         LINE#         36
  C:2E54H         LINE#         37
  C:2E54H         LINE#         38
  C:2E57H         LINE#         39
  -------         ENDPROC       _ECBM_MODBUS_RTU_CRC16
  -------         PROC          _ECBM_MODBUS_RTU_CHECK_FUN_NUM
  D:0007H         SYMBOL        fun_num
  C:000EH         LINE#         43
  C:000EH         LINE#         44
  C:001DH         LINE#         69
  C:001DH         LINE#         72
  C:001DH         LINE#         75
  C:001DH         LINE#         81
  C:001DH         LINE#         84
  C:001DH         LINE#         87
  C:001DH         LINE#         90
  C:001EH         LINE#         92
  C:0022H         LINE#         93
  C:0022H         LINE#         94
  -------         ENDPROC       _ECBM_MODBUS_RTU_CHECK_FUN_NUM
  -------         PROC          _ECBM_MODBUS_CMD_WRITE_REG
  D:0006H         SYMBOL        addr
  D:0004H         SYMBOL        dat
  C:323DH         LINE#         127
  C:323DH         LINE#         128
  C:3253H         LINE#         129
  -------         ENDPROC       _ECBM_MODBUS_CMD_WRITE_REG
  -------         PROC          _ECBM_MODBUS_CMD_READ_REG
  D:0006H         SYMBOL        addr
  D:0001H         SYMBOL        dat
  C:31F0H         LINE#         135
  C:31F0H         LINE#         136
  -------         ENDPROC       _ECBM_MODBUS_CMD_READ_REG
BL51 BANKED LINKER/LOCATER V6.22.2.0                                                  10/23/2021  18:30:43  PAGE 32


  -------         PROC          ECBM_MODBUS_RTU_CMD_0X01
  -------         DO            
  X:00C4H         SYMBOL        temp8
  X:00C5H         SYMBOL        t1
  X:00C6H         SYMBOL        c1
  X:00C7H         SYMBOL        i
  X:00C8H         SYMBOL        j
  X:00C9H         SYMBOL        qw
  X:00CAH         SYMBOL        temp16
  -------         ENDDO         
  C:13F9H         LINE#         143
  C:13F9H         LINE#         146
  C:1400H         LINE#         147
  C:141EH         LINE#         148
  C:1454H         LINE#         149
  C:1472H         LINE#         152
  C:1472H         LINE#         153
  C:1476H         LINE#         154
  C:147EH         LINE#         155
  C:1481H         LINE#         156
  C:1486H         LINE#         157
  C:148BH         LINE#         158
  C:1492H         LINE#         159
  C:1497H         LINE#         160
  C:1499H         LINE#         161
  C:1499H         LINE#         162
  C:1499H         LINE#         163
  C:1499H         LINE#         164
  C:149CH         LINE#         165
  C:14A4H         LINE#         166
  C:14BAH         LINE#         167
  C:14C2H         LINE#         168
  C:14C5H         LINE#         169
  C:14C8H         LINE#         170
  C:14CDH         LINE#         171
  C:14D5H         LINE#         172
  C:14DCH         LINE#         173
  C:14E1H         LINE#         174
  C:14E9H         LINE#         175
  C:14FEH         LINE#         176
  C:1503H         LINE#         177
  C:1515H         LINE#         178
  C:1518H         LINE#         179
  C:151AH         LINE#         180
  C:151CH         LINE#         181
  C:151CH         LINE#         182
  C:152EH         LINE#         183
  C:1544H         LINE#         184
  C:155FH         LINE#         185
  C:1567H         LINE#         186
  C:156FH         LINE#         187
  C:1574H         LINE#         188
  C:1584H         LINE#         189
  C:158BH         LINE#         195
  C:158FH         LINE#         196
  C:1594H         LINE#         197
  C:1597H         LINE#         198
BL51 BANKED LINKER/LOCATER V6.22.2.0                                                  10/23/2021  18:30:43  PAGE 33


  C:159CH         LINE#         199
  C:15A1H         LINE#         200
  C:15A8H         LINE#         201
  C:15ADH         LINE#         202
  C:15B2H         LINE#         203
  C:15B2H         LINE#         204
  C:15B2H         LINE#         205
  C:15B2H         LINE#         206
  C:15B2H         LINE#         207
  C:15B4H         LINE#         208
  C:15B8H         LINE#         209
  C:15BDH         LINE#         210
  C:15C0H         LINE#         211
  C:15C5H         LINE#         212
  C:15CAH         LINE#         213
  C:15D1H         LINE#         214
  C:15D6H         LINE#         215
  C:15DBH         LINE#         216
  C:15E2H         LINE#         217
  C:15E9H         LINE#         218
  C:15E9H         LINE#         219
  C:15E9H         LINE#         220
  -------         ENDPROC       ECBM_MODBUS_RTU_CMD_0X01
  -------         PROC          ECBM_MODBUS_RTU_CMD_0X02
  -------         DO            
  X:00C4H         SYMBOL        temp8
  X:00C5H         SYMBOL        t1
  X:00C6H         SYMBOL        c1
  X:00C7H         SYMBOL        i
  X:00C8H         SYMBOL        j
  X:00C9H         SYMBOL        qw
  X:00CAH         SYMBOL        temp16
  -------         ENDDO         
  C:17BEH         LINE#         226
  C:17BEH         LINE#         229
  C:17C5H         LINE#         230
  C:17E3H         LINE#         231
  C:1819H         LINE#         245
  C:1821H         LINE#         246
  C:1837H         LINE#         247
  C:183FH         LINE#         248
  C:1842H         LINE#         249
  C:1845H         LINE#         250
  C:184AH         LINE#         251
  C:1852H         LINE#         252
  C:1859H         LINE#         253
  C:185EH         LINE#         254
  C:1866H         LINE#         255
  C:187BH         LINE#         256
  C:1880H         LINE#         257
  C:1892H         LINE#         258
  C:1895H         LINE#         259
  C:1897H         LINE#         260
  C:1899H         LINE#         261
  C:1899H         LINE#         262
  C:18ABH         LINE#         263
  C:18C1H         LINE#         264
BL51 BANKED LINKER/LOCATER V6.22.2.0                                                  10/23/2021  18:30:43  PAGE 34


  C:18DCH         LINE#         265
  C:18E4H         LINE#         266
  C:18ECH         LINE#         267
  C:18F1H         LINE#         268
  C:1901H         LINE#         269
  C:1908H         LINE#         275
  C:190CH         LINE#         276
  C:1911H         LINE#         277
  C:1914H         LINE#         278
  C:1919H         LINE#         279
  C:191EH         LINE#         280
  C:1925H         LINE#         281
  C:192AH         LINE#         282
  C:192FH         LINE#         283
  C:192FH         LINE#         284
  C:192FH         LINE#         285
  C:192FH         LINE#         286
  C:192FH         LINE#         287
  C:1931H         LINE#         288
  C:1935H         LINE#         289
  C:193AH         LINE#         290
  C:193DH         LINE#         291
  C:1942H         LINE#         292
  C:1947H         LINE#         293
  C:194EH         LINE#         294
  C:1953H         LINE#         295
  C:1958H         LINE#         296
  C:195FH         LINE#         297
  C:1966H         LINE#         298
  C:1966H         LINE#         299
  C:1966H         LINE#         300
  -------         ENDPROC       ECBM_MODBUS_RTU_CMD_0X02
  -------         PROC          ECBM_MODBUS_RTU_CMD_0X03
  -------         DO            
  X:00C4H         SYMBOL        temp16
  X:00C6H         SYMBOL        i
  -------         ENDDO         
  C:1B09H         LINE#         306
  C:1B09H         LINE#         308
  C:1B10H         LINE#         309
  C:1B2EH         LINE#         310
  C:1B64H         LINE#         311
  C:1B82H         LINE#         314
  C:1B82H         LINE#         315
  C:1B86H         LINE#         316
  C:1B8EH         LINE#         317
  C:1B91H         LINE#         318
  C:1B96H         LINE#         319
  C:1B9BH         LINE#         320
  C:1BA2H         LINE#         321
  C:1BA7H         LINE#         322
  C:1BA9H         LINE#         323
  C:1BA9H         LINE#         324
  C:1BA9H         LINE#         325
  C:1BA9H         LINE#         326
  C:1BACH         LINE#         327
  C:1BB4H         LINE#         328
BL51 BANKED LINKER/LOCATER V6.22.2.0                                                  10/23/2021  18:30:43  PAGE 35


  C:1BB7H         LINE#         329
  C:1BBCH         LINE#         330
  C:1BC5H         LINE#         331
  C:1BCCH         LINE#         332
  C:1BD1H         LINE#         333
  C:1BDAH         LINE#         334
  C:1BDAH         LINE#         335
  C:1BF2H         LINE#         336
  C:1C04H         LINE#         337
  C:1C0CH         LINE#         338
  C:1C12H         LINE#         339
  C:1C1AH         LINE#         340
  C:1C23H         LINE#         341
  C:1C33H         LINE#         347
  C:1C37H         LINE#         348
  C:1C3CH         LINE#         349
  C:1C3FH         LINE#         350
  C:1C44H         LINE#         351
  C:1C49H         LINE#         352
  C:1C50H         LINE#         353
  C:1C55H         LINE#         354
  C:1C5AH         LINE#         355
  C:1C5AH         LINE#         356
  C:1C5AH         LINE#         357
  C:1C5AH         LINE#         358
  C:1C5AH         LINE#         359
  C:1C5CH         LINE#         360
  C:1C60H         LINE#         361
  C:1C65H         LINE#         362
  C:1C68H         LINE#         363
  C:1C6DH         LINE#         364
  C:1C72H         LINE#         365
  C:1C79H         LINE#         366
  C:1C7EH         LINE#         367
  C:1C83H         LINE#         368
  C:1C8AH         LINE#         369
  C:1C91H         LINE#         370
  C:1C91H         LINE#         371
  C:1C91H         LINE#         372
  -------         ENDPROC       ECBM_MODBUS_RTU_CMD_0X03
  -------         PROC          ECBM_MODBUS_RTU_CMD_0X05
  C:2362H         LINE#         446
  C:2362H         LINE#         447
  C:2369H         LINE#         448
  C:237DH         LINE#         450
  C:2392H         LINE#         453
  C:2392H         LINE#         454
  C:239AH         LINE#         455
  C:239EH         LINE#         456
  C:23A1H         LINE#         457
  C:23A6H         LINE#         458
  C:23ABH         LINE#         459
  C:23B2H         LINE#         460
  C:23B7H         LINE#         461
  C:23B9H         LINE#         462
  C:23B9H         LINE#         463
  C:23B9H         LINE#         464
BL51 BANKED LINKER/LOCATER V6.22.2.0                                                  10/23/2021  18:30:43  PAGE 36


  C:23B9H         LINE#         465
  C:23BCH         LINE#         466
  C:23CAH         LINE#         467
  C:23D2H         LINE#         468
  C:23D5H         LINE#         469
  C:23DAH         LINE#         470
  C:23E1H         LINE#         471
  C:23E8H         LINE#         472
  C:23EFH         LINE#         473
  C:23F6H         LINE#         474
  C:23FDH         LINE#         475
  C:2402H         LINE#         476
  C:2409H         LINE#         477
  C:2410H         LINE#         478
  C:2417H         LINE#         479
  C:241BH         LINE#         480
  C:241BH         LINE#         481
  C:241BH         LINE#         482
  C:241BH         LINE#         483
  C:241BH         LINE#         497
  C:241DH         LINE#         498
  C:2421H         LINE#         499
  C:2426H         LINE#         500
  C:2429H         LINE#         501
  C:242EH         LINE#         502
  C:2433H         LINE#         503
  C:243AH         LINE#         504
  C:243FH         LINE#         505
  C:2444H         LINE#         506
  C:244BH         LINE#         507
  C:2452H         LINE#         508
  C:2452H         LINE#         509
  C:2452H         LINE#         510
  -------         ENDPROC       ECBM_MODBUS_RTU_CMD_0X05
  -------         PROC          ECBM_MODBUS_RTU_CMD_0X06
  C:2874H         LINE#         516
  C:2874H         LINE#         517
  C:287BH         LINE#         520
  C:2890H         LINE#         523
  C:2890H         LINE#         524
  C:2898H         LINE#         525
  C:289CH         LINE#         526
  C:289FH         LINE#         527
  C:28A4H         LINE#         528
  C:28A9H         LINE#         529
  C:28B0H         LINE#         530
  C:28B5H         LINE#         531
  C:28B7H         LINE#         532
  C:28B7H         LINE#         533
  C:28B7H         LINE#         534
  C:28B7H         LINE#         535
  C:28B9H         LINE#         536
  C:28CAH         LINE#         537
  C:28CFH         LINE#         538
  C:28D2H         LINE#         539
  C:28D7H         LINE#         540
  C:28DEH         LINE#         541
BL51 BANKED LINKER/LOCATER V6.22.2.0                                                  10/23/2021  18:30:43  PAGE 37


  C:28E5H         LINE#         542
  C:28ECH         LINE#         543
  C:28F3H         LINE#         544
  C:28FAH         LINE#         545
  C:28FFH         LINE#         546
  C:2906H         LINE#         547
  C:290DH         LINE#         548
  C:2914H         LINE#         549
  C:291BH         LINE#         550
  C:2922H         LINE#         551
  C:2929H         LINE#         552
  C:2929H         LINE#         553
  C:2929H         LINE#         580
  -------         ENDPROC       ECBM_MODBUS_RTU_CMD_0X06
  -------         PROC          ECBM_MODBUS_RTU_CMD_0X10
  -------         DO            
  D:0001H         SYMBOL        i
  -------         ENDDO         
  C:1C92H         LINE#         586
  C:1C92H         LINE#         588
  C:1C99H         LINE#         589
  C:1CB7H         LINE#         590
  C:1CECH         LINE#         591
  C:1D0AH         LINE#         594
  C:1D0AH         LINE#         595
  C:1D12H         LINE#         596
  C:1D16H         LINE#         597
  C:1D19H         LINE#         598
  C:1D1EH         LINE#         599
  C:1D23H         LINE#         600
  C:1D2AH         LINE#         601
  C:1D2FH         LINE#         602
  C:1D31H         LINE#         603
  C:1D31H         LINE#         604
  C:1D31H         LINE#         605
  C:1D31H         LINE#         606
  C:1D34H         LINE#         607
  C:1D34H         LINE#         608
  C:1D3FH         LINE#         609
  C:1D5CH         LINE#         610
  C:1D5FH         LINE#         611
  C:1D67H         LINE#         612
  C:1D6AH         LINE#         613
  C:1D6FH         LINE#         614
  C:1D76H         LINE#         615
  C:1D7DH         LINE#         616
  C:1D84H         LINE#         617
  C:1D8BH         LINE#         618
  C:1D92H         LINE#         619
  C:1D97H         LINE#         620
  C:1D9EH         LINE#         621
  C:1DA5H         LINE#         622
  C:1DACH         LINE#         623
  C:1DB0H         LINE#         624
  C:1DB0H         LINE#         625
  C:1DB0H         LINE#         626
  C:1DB0H         LINE#         627
BL51 BANKED LINKER/LOCATER V6.22.2.0                                                  10/23/2021  18:30:43  PAGE 38


  C:1DB0H         LINE#         628
  C:1DB2H         LINE#         629
  C:1DB6H         LINE#         630
  C:1DBBH         LINE#         631
  C:1DBEH         LINE#         632
  C:1DC3H         LINE#         633
  C:1DC8H         LINE#         634
  C:1DCFH         LINE#         635
  C:1DD4H         LINE#         636
  C:1DD6H         LINE#         637
  C:1DD6H         LINE#         638
  C:1DD6H         LINE#         639
  C:1DD6H         LINE#         640
  C:1DD6H         LINE#         641
  C:1DD8H         LINE#         642
  C:1DDCH         LINE#         643
  C:1DE1H         LINE#         644
  C:1DE4H         LINE#         645
  C:1DE9H         LINE#         646
  C:1DEEH         LINE#         647
  C:1DF5H         LINE#         648
  C:1DFAH         LINE#         649
  C:1DFFH         LINE#         650
  C:1E06H         LINE#         651
  C:1E0DH         LINE#         652
  C:1E0DH         LINE#         653
  C:1E0DH         LINE#         654
  -------         ENDPROC       ECBM_MODBUS_RTU_CMD_0X10
  -------         PROC          ECBM_MODBUS_RTU_RECEIVE
  -------         DO            
  D:0005H         SYMBOL        dat
  -------         ENDDO         
  C:11EDH         LINE#         659
  C:11EDH         LINE#         661
  C:11F4H         LINE#         662
  C:11F9H         LINE#         663
  C:1224H         LINE#         664
  C:1224H         LINE#         665
  C:1230H         LINE#         666
  C:1234H         LINE#         667
  C:123AH         LINE#         668
  C:123EH         LINE#         669
  C:1240H         LINE#         670
  C:1244H         LINE#         671
  C:1244H         LINE#         672
  C:1248H         LINE#         673
  C:124BH         LINE#         674
  C:1252H         LINE#         675
  C:1257H         LINE#         676
  C:1257H         LINE#         677
  C:1257H         LINE#         678
  C:125AH         LINE#         679
  C:125EH         LINE#         680
  C:125EH         LINE#         681
  C:125FH         LINE#         682
  C:125FH         LINE#         683
  C:1269H         LINE#         684
BL51 BANKED LINKER/LOCATER V6.22.2.0                                                  10/23/2021  18:30:43  PAGE 39


  C:126DH         LINE#         685
  C:126DH         LINE#         686
  C:126FH         LINE#         687
  C:1278H         LINE#         688
  C:1281H         LINE#         689
  C:1285H         LINE#         690
  C:1289H         LINE#         691
  C:128CH         LINE#         692
  C:128DH         LINE#         693
  C:1291H         LINE#         694
  C:129FH         LINE#         695
  C:129FH         LINE#         696
  C:129FH         LINE#         697
  C:129FH         LINE#         698
  C:129FH         LINE#         699
  C:12A2H         LINE#         700
  C:12A2H         LINE#         701
  C:12ABH         LINE#         702
  C:12AFH         LINE#         703
  C:12BDH         LINE#         704
  C:12BDH         LINE#         705
  C:12BDH         LINE#         706
  C:12C0H         LINE#         707
  C:12C0H         LINE#         708
  C:12C9H         LINE#         709
  C:12CDH         LINE#         710
  C:12DBH         LINE#         711
  C:12DBH         LINE#         712
  C:12DBH         LINE#         713
  C:12DEH         LINE#         714
  C:12DEH         LINE#         715
  C:12E7H         LINE#         716
  C:12EBH         LINE#         717
  C:12F9H         LINE#         718
  C:12F9H         LINE#         719
  C:12F9H         LINE#         720
  C:12FCH         LINE#         721
  C:12FCH         LINE#         722
  C:1305H         LINE#         723
  C:130CH         LINE#         724
  C:130EH         LINE#         725
  C:1312H         LINE#         726
  C:1314H         LINE#         727
  C:1318H         LINE#         728
  C:1318H         LINE#         729
  C:1326H         LINE#         730
  C:1326H         LINE#         731
  C:1326H         LINE#         732
  C:1329H         LINE#         733
  C:1329H         LINE#         734
  C:1330H         LINE#         735
  C:1334H         LINE#         736
  C:1335H         LINE#         737
  C:1335H         LINE#         738
  C:1340H         LINE#         739
  C:134FH         LINE#         740
  C:1351H         LINE#         741
BL51 BANKED LINKER/LOCATER V6.22.2.0                                                  10/23/2021  18:30:43  PAGE 40


  C:1352H         LINE#         742
  C:1354H         LINE#         743
  C:1354H         LINE#         744
  C:1355H         LINE#         746
  C:1355H         LINE#         747
  C:1359H         LINE#         748
  C:1365H         LINE#         749
  C:1369H         LINE#         750
  C:136CH         LINE#         751
  C:136DH         LINE#         752
  C:1371H         LINE#         753
  C:1375H         LINE#         754
  C:1383H         LINE#         755
  C:1383H         LINE#         756
  C:1383H         LINE#         757
  C:1383H         LINE#         758
  C:1385H         LINE#         759
  C:1385H         LINE#         760
  C:139AH         LINE#         761
  C:139EH         LINE#         762
  C:13ACH         LINE#         763
  C:13ACH         LINE#         764
  C:13ACH         LINE#         765
  C:13AEH         LINE#         766
  C:13AEH         LINE#         767
  C:13C4H         LINE#         768
  C:13C7H         LINE#         769
  C:13D1H         LINE#         770
  C:13D3H         LINE#         771
  C:13D5H         LINE#         772
  C:13D7H         LINE#         773
  C:13D7H         LINE#         774
  C:13E5H         LINE#         775
  C:13EAH         LINE#         776
  C:13F8H         LINE#         777
  C:13F8H         LINE#         779
  C:13F8H         LINE#         780
  -------         ENDPROC       ECBM_MODBUS_RTU_RECEIVE
  -------         PROC          ECBM_MODBUS_RTU_RUN
  C:2453H         LINE#         784
  C:2453H         LINE#         785
  C:2473H         LINE#         786
  C:2473H         LINE#         787
  C:2473H         LINE#         788
  C:2478H         LINE#         789
  C:247FH         LINE#         790
  C:2482H         LINE#         791
  C:248BH         LINE#         792
  C:2492H         LINE#         793
  C:2499H         LINE#         794
  C:24A2H         LINE#         795
  C:24A9H         LINE#         796
  C:24B0H         LINE#         797
  C:24B7H         LINE#         798
  C:24B7H         LINE#         799
  C:24B7H         LINE#         800
  C:24BAH         LINE#         801
BL51 BANKED LINKER/LOCATER V6.22.2.0                                                  10/23/2021  18:30:43  PAGE 41


  C:24BAH         LINE#         803
  C:24BAH         LINE#         804
  C:24BDH         LINE#         805
  C:24BDH         LINE#         809
  C:24BDH         LINE#         811
  C:24D6H         LINE#         813
  C:24DBH         LINE#         816
  C:24E0H         LINE#         819
  C:24E5H         LINE#         825
  C:24EAH         LINE#         828
  C:24EFH         LINE#         831
  C:24F2H         LINE#         833
  C:24F2H         LINE#         835
  C:24F6H         LINE#         836
  C:24F7H         LINE#         837
  C:24F7H         LINE#         838
  C:24FCH         LINE#         839
  C:2503H         LINE#         840
  C:2506H         LINE#         841
  C:250FH         LINE#         842
  C:2516H         LINE#         843
  C:251DH         LINE#         844
  C:2526H         LINE#         845
  C:252DH         LINE#         846
  C:2534H         LINE#         847
  C:253BH         LINE#         848
  C:253BH         LINE#         849
  C:253FH         LINE#         850
  C:253FH         LINE#         851
  C:253FH         LINE#         852
  -------         ENDPROC       ECBM_MODBUS_RTU_RUN
  -------         ENDMOD        MODBUS

  -------         MODULE        ?C?FPMUL
  C:0026H         PUBLIC        ?C?FPMUL
  -------         ENDMOD        ?C?FPMUL

  -------         MODULE        ?C?FPDIV
  C:012FH         PUBLIC        ?C?FPDIV
  -------         ENDMOD        ?C?FPDIV

  -------         MODULE        ?C?FCAST
  C:01D6H         PUBLIC        ?C?FCASTC
  C:01D1H         PUBLIC        ?C?FCASTI
  C:01CCH         PUBLIC        ?C?FCASTL
  -------         ENDMOD        ?C?FCAST

  -------         MODULE        ?C?CASTF
  C:020AH         PUBLIC        ?C?CASTF
  -------         ENDMOD        ?C?CASTF

  -------         MODULE        VSPRINTF
  X:013AH         PUBLIC        ?_VSPRINTF?BYTE
  C:2EF0H         PUBLIC        _VSPRINTF
  -------         ENDMOD        VSPRINTF

  -------         MODULE        PRINTF
BL51 BANKED LINKER/LOCATER V6.22.2.0                                                  10/23/2021  18:30:43  PAGE 42


  X:0143H         PUBLIC        ?_PRINTF?BYTE
  X:0143H         PUBLIC        ?_SPRINTF?BYTE
  C:0863H         PUBLIC        _PRINTF
  C:085DH         PUBLIC        _SPRINTF
  -------         ENDMOD        PRINTF

  -------         MODULE        ?C?FPROUND
  C:028BH         PUBLIC        ?C?FPROUND
  -------         ENDMOD        ?C?FPROUND

  -------         MODULE        ?C?FPCONVERT
  C:02C8H         PUBLIC        ?C?FPCONVERT
  -------         ENDMOD        ?C?FPCONVERT

  -------         MODULE        ?C?FPADD
  C:03D4H         PUBLIC        ?C?FPADD
  C:03D0H         PUBLIC        ?C?FPSUB
  -------         ENDMOD        ?C?FPADD

  -------         MODULE        ?C?FTNPWR
  C:04F5H         PUBLIC        ?C?FTNPWR
  -------         ENDMOD        ?C?FTNPWR

  -------         MODULE        ?C?CLDPTR
  C:0535H         PUBLIC        ?C?CLDPTR
  -------         ENDMOD        ?C?CLDPTR

  -------         MODULE        ?C?CLDOPTR
  C:054EH         PUBLIC        ?C?CLDOPTR
  -------         ENDMOD        ?C?CLDOPTR

  -------         MODULE        ?C?CSTPTR
  C:057BH         PUBLIC        ?C?CSTPTR
  -------         ENDMOD        ?C?CSTPTR

  -------         MODULE        ?C?CSTOPTR
  C:058DH         PUBLIC        ?C?CSTOPTR
  -------         ENDMOD        ?C?CSTOPTR

  -------         MODULE        ?C?IMUL
  C:05AFH         PUBLIC        ?C?IMUL
  -------         ENDMOD        ?C?IMUL

  -------         MODULE        ?C?IILDX
  C:05C1H         PUBLIC        ?C?IILDX
  -------         ENDMOD        ?C?IILDX

  -------         MODULE        ?C?ILDIX
  C:05D7H         PUBLIC        ?C?ILDIX
  -------         ENDMOD        ?C?ILDIX

  -------         MODULE        ?C?ISTPTR
  C:05EDH         PUBLIC        ?C?ISTPTR
  -------         ENDMOD        ?C?ISTPTR

  -------         MODULE        ?C?LMUL
  C:060CH         PUBLIC        ?C?LMUL
BL51 BANKED LINKER/LOCATER V6.22.2.0                                                  10/23/2021  18:30:43  PAGE 43


  -------         ENDMOD        ?C?LMUL

  -------         MODULE        ?C?ULDIV
  C:0697H         PUBLIC        ?C?ULDIV
  -------         ENDMOD        ?C?ULDIV

  -------         MODULE        ?C?LNEG
  C:0729H         PUBLIC        ?C?LNEG
  -------         ENDMOD        ?C?LNEG

  -------         MODULE        ?C?ULCMP
  C:0737H         PUBLIC        ?C?ULCMP
  -------         ENDMOD        ?C?ULCMP

  -------         MODULE        ?C?LSTXDATA
  C:0748H         PUBLIC        ?C?LSTXDATA
  -------         ENDMOD        ?C?LSTXDATA

  -------         MODULE        ?C?LSTKXDATA
  C:0754H         PUBLIC        ?C?LSTKXDATA
  -------         ENDMOD        ?C?LSTKXDATA

  -------         MODULE        ?C?PLDIXDATA
  C:0785H         PUBLIC        ?C?PLDIXDATA
  -------         ENDMOD        ?C?PLDIXDATA

  -------         MODULE        ?C?PSTXDATA
  C:079CH         PUBLIC        ?C?PSTXDATA
  -------         ENDMOD        ?C?PSTXDATA

  -------         MODULE        ?C?CCASE
  C:07A5H         PUBLIC        ?C?CCASE
  -------         ENDMOD        ?C?CCASE

  -------         MODULE        ?C?LIMUL
  C:07CBH         PUBLIC        ?C?LIMUL
  -------         ENDMOD        ?C?LIMUL

  -------         MODULE        PUTCHAR
  C:3169H         PUBLIC        _PUTCHAR
  -------         ENDMOD        PUTCHAR

Program Size: data=36.2 xdata=581 code=13008
LINK/LOCATE RUN COMPLETE.  0 WARNING(S),  0 ERROR(S)
